:020000040800F2
:10000000B00A0020A1010008C12E0008132D00082D
:10001000BD2E0008F10800087D3100080000000036
:100020000000000000000000000000000530000893
:100030002D0D000800000000C52E00080730000844
:10004000BB010008BB010008BB010008BB010008A0
:10005000BB010008BB010008BB010008BB01000890
:10006000BB010008BB010008BB010008BB01000880
:10007000ED0C0008FD0C00080D0D00081D0D00081A
:10008000BB010008BB010008BB010008CD3000081F
:10009000DD300008BB010008BB010008BB010008FF
:1000A000BB010008BB010008BB010008BB01000840
:1000B000BB010008BB010008BB010008BB01000830
:1000C000BB010008BB010008BB010008BB01000820
:1000D000BB010008A9300008BB010008BD300008C2
:1000E000BB010008BB010008BB01000800F002F8DA
:1000F00000F046F80AA090E8000C82448344AAF17C
:100100000107DA4501D100F03BF8AFF2090EBAE879
:100110000F0013F0010F18BFFB1A43F0010318473B
:10012000C0570000E0570000103A24BF78C878C1DB
:10013000FAD8520724BF30C830C144BF04680C60ED
:10014000704700000023002400250026103A28BF35
:1001500078C1FBD8520728BF30C148BF0B60704739
:10016000642900F00581732900F011830020704795
:100170001FB59DE8030000F041FA1FBD10B510BD8A
:1001800000F034FB1146FFF7F3FF04F056FA00F0DD
:1001900052FB03B4FFF7F2FF03BC00F083FB000047
:1001A0000948804709480047FEE7FEE7FEE7FEE70B
:1001B000FEE7FEE7FEE7FEE7FEE7FEE70448054947
:1001C000054A064B704700000F300008ED0000089C
:1001D000B0040020B00A0020B0060020B0060020C5
:1001E00070B5064600F0EEF9056806F10B0020F048
:1001F0000704B4429CBF002070BD2B466A68BAB1A8
:100200001068A04210D304F1080188423CBF506836
:10021000586007D35168101941601168091B0160CB
:1002200058601460101D70BD13465268002AE7D153
:100230002146284600F0CEF90028DED170BD70B509
:100240000446051F00F0BEF90068002C14BF446886
:1002500070BD002C18BFAC423CBF20466468F8D388
:1002600001680A18AA4218BF456003D12A680546EA
:100270001144016028684119A1421CBF6C6070BD27
:100280006168696021680844286070BD0FB41CB5BE
:10029000074B06AA7B4469460090059800F04DFA8A
:1002A0000020694600F05CFA1CBC5DF814FB0000FD
:1002B000C90400002DE9F0410E46044600202062EA
:1002C0002046E168884730B3252805D0D4E90121CC
:1002D0009047206A401CF2E7E168204600278847E3
:1002E000050018D0A5F14100192802D820354FF497
:1002F00000673246294620462760FFF731FF40B1AC
:10030000012804D0F61D26F007060836D8E7361D6A
:10031000D6E72846DAE7206ABDE8F08170B50C46DA
:100320000546012A05D02878800600D5EA69002311
:1003300002E0012305E05B1C934202D2E05C00284E
:10034000F9D1A869E618C01AA861286A1844286279
:100350002846AFF3008004E0D5E9012114F8010B31
:100360009047B442F8D32846AFF3008070BD000038
:100370002DE9F0410646002410687529314616A57E
:1003800010D0AFF30080002802DA404213A507E046
:1003900031688A0701D512A502E0490704D511A5E5
:1003A000012401E0AFF3008000210A2206F12407B6
:1003B00009E0B0FBF2FCB0FBF2F302FB1C003030B2
:1003C00078541846491C0028F3D123462A46304663
:1003D000BDE8F04100F053B9000000002D0000001E
:1003E0002B00000020000000032A40F2308010F0B3
:1003F000030C00F0158011F8013BBCF1020F6244C0
:1004000098BF11F801CB00F8013B38BF11F8013B50
:10041000A2F1040298BF00F801CB38BF00F8013BFD
:1004200011F0030300F02580083AC0F0088051F86D
:10043000043B083A51F804CBA0E80810F5E7121D78
:100440005CBF51F8043B40F8043BAFF30080D20797
:1004500024BF11F8013B11F801CB48BF11F8012B63
:1004600024BF00F8013B00F801CB48BF00F8012B86
:10047000704710B5203AC0F00B80B1E81850203A10
:10048000A0E81850B1E81850A0E81850BFF4F5AF34
:100490005FEA027C24BFB1E81850A0E8185044BFBE
:1004A00018C918C0BDE810405FEA827C24BF51F82B
:1004B000043B40F8043B08BF7047D20728BF31F81F
:1004C000023B48BF11F8012B28BF20F8023B48BF70
:1004D00000F8012B70474FF000020429C0F0128091
:1004E00010F0030C00F01B80CCF1040CBCF1020FE7
:1004F00018BF00F8012BA8BF20F8022BA1EB0C01BC
:1005000000F00DB85FEAC17C24BF00F8012B00F8B1
:10051000012B48BF00F8012B70474FF0000200B5D7
:10052000134694469646203922BFA0E80C50A0E816
:100530000C50B1F12001BFF4F7AF090728BFA0E8C4
:100540000C5048BF0CC05DF804EB890028BF40F890
:10055000042B08BF704748BF20F8022B11F0804FD2
:1005600018BF00F8012B704710B5044610F0030FB8
:1005700008BF11F0030F40F015804FF0013E121F2D
:10058000C0F20E8051F8043BA3EB0E0C2CEA030CD6
:100590001CEACE1C08BF40F8043BF0D0A1F10401D6
:1005A00002F10402521E08DB11F8013B002B00F897
:1005B000013BF7D11146FFF78EFF204610BD704773
:1005C000704770470048704710020020704770471E
:1005D0007047704738B504460A4600206946AFF3B5
:1005E0000080002808BF38BD02460099204600F070
:1005F000DBF8012038BD012000F0F0B8F8B5AFF30A
:100600000080054600200C46102000BF0646A819B1
:10061000A0420DD9324669460020AFF300800700A2
:1006200008BF00F0DBF80098A04218BF0546C419C7
:10063000FFF7C8FF05600746F01D20F007004619C8
:10064000284600F00AF8B44208BFF8BDA21B3146A4
:100650003868BDE8F84000F0A7B800210160C0E9A3
:10066000011070471020704710B500F099F800682D
:1006700010BD10B5044600F093F8046010BD2DE9DC
:10068000F0470D4699469246044600F12408016859
:10069000880604D5E06921F01001216000E0012006
:1006A000A84201DD471B00E00027A1697A1902EB8F
:1006B0000900081AA0612078C00602D42046AFF3D2
:1006C0000080002608E0D4E901211AF806009047CE
:1006D000206A401C761C20624E45F4DB2078C00660
:1006E0000AD52046AFF3008006E0D4E9012130208E
:1006F0009047206A401C2062381EA7F10107F4DCF5
:1007000007E0D4E9012118F805009047206A401C51
:100710002062281EA5F10105F3DC2046AFF300801E
:100720002078000602D50220BDE8F0870120FBE713
:1007300001694A1C02610878704700B58FB0CDE9A5
:1007400001310021059105497944CDE90310114695
:100750006846FFF7AFFD0FB000BD0000E5FFFFFFEB
:100760000A6802F8010B0A60704710B5436913B1BB
:10077000AFF3008001E0FFF7D1FD012010BD12783A
:1007800000F124010A7000224A700122EDE711688D
:100790004FF0FF32E9E700000048704708020020F0
:1007A0000048704708020020034640688C46002835
:1007B00018BF88423CBF03464068F8D31868184405
:1007C000884207D00CF1030020F00700001D411AF9
:1007D000521A0146081D0A60FFF731BD10B500F03E
:1007E00039F8BDE8104000F02FB870477546FFF7A4
:1007F000D3FFAE4605006946534620F00700854604
:1008000018B020B5FFF7DAFCBDE820404FF0000635
:100810004FF000074FF000084FF0000B21F00701E8
:10082000AC46ACE8C009ACE8C009ACE8C009ACE82B
:10083000C0098D46704710B50446AFF300802046CE
:10084000BDE81040FFF7A5BC002801D000F02AB891
:100850007047000010B5012805D0002103A000F06A
:1008600027F8012010BD09A1F8E7000053494752BD
:10087000544D454D3A204F7574206F662068656170
:1008800070206D656D6F7279000000003A20486538
:100890006170206D656D6F727920636F7272757013
:1008A0007465640001491820ABBEFEE72600020013
:1008B00070B505460C460A2000E06D1C00F011F8EA
:1008C00035B128780028F8D102E0641C00F009F85E
:1008D00014B120780028F8D1BDE870400A20AFF3A9
:1008E000008008B569468DF800000320ABBE08BD46
:1008F00000BFFEE710B58AB004460D200590012028
:100900000690002007900490012008904FF4415079
:10091000009043F2200001904FF44150029043F2C6
:10092000200003906946204600F0D2FA08B100F09A
:10093000FFF9204600F0B3FE08B100F0F9F90221FA
:10094000204600F005FA08B100F0F2F90AB010BD37
:1009500010B502460023002002E0145C2344401C32
:100960008842FADBD8B210BDF8B504460E461546EB
:100970000020E060A06006F5C060206000202075C7
:10098000082020611A480068009002F0C3FC84F837
:1009900034001748017835200155154800880112A8
:1009A000362001551248817837200155A62045434D
:1009B00038200555C5F3072139200155C5F30741F6
:1009C0003A200155290E3B20015500BF094800F08F
:1009D000C2FB0028FAD004F1440304F1340221469A
:1009E000044800F0CAF908B100F0A2F9F8BD00000F
:1009F000B258000830000020F8B504460D461646EF
:100A00000020E060A06005F5C06020600020207537
:100A10000820206117480068009002F07BFC84F8F1
:100A2000340014480178352001551248008801121D
:100A3000362001550F48817837200155382006555A
:100A40000021392001553A2001553B20015500BFB6
:100A5000094800F080FB0028FAD004F1440304F1B7
:100A600034022146044800F088F908B100F060F92A
:100A7000F8BD0000AA58000830000020F8B5044670
:100A80000E4615460020E060A06006F5C0602060BC
:100A900000202075082020611A480068009002F0AC
:100AA00039FC84F834001748017835200155154881
:100AB00000880112362001551248817837200155EF
:100AC000A620454338200555C5F307213920015597
:100AD000C5F307413A200155290E3B20015500BFBF
:100AE000094800F038FB0028FAD004F1440304F16F
:100AF00034022146044800F040F908B100F018F92A
:100B0000F8BD0000B65800083000002070B504465B
:100B10000D4616460020E060A0602060207502208F
:100B2000206184F834603520055500BF084800F086
:100B300012FB0028FAD004F1440304F134022146E8
:100B4000034800F01AF908B100F0F2F870BD000097
:100B50003000002038B504460D460020E060A0605B
:100B600005F5C0602060002020750820206118482D
:100B70000068009002F0CEFB84F83400144801783D
:100B800035200155124800880112362001551048C1
:100B90008178372001550321382001550021392063
:100BA00001553A2001553B20015500BF094800F08E
:100BB000D2FA0028FAD004F1440304F134022146A9
:100BC000044800F0DAF808B100F0B2F838BD0000CF
:100BD000AE5800083000002038B504460D4600200D
:100BE000E060A06005F5C06020600020207508204E
:100BF0002061206117480068009002F08BFB84F8A8
:100C0000340014480178352001551248008801123B
:100C1000362001550F4881783720015500213820B2
:100C20000155392001553A2001553B20015500BF9F
:100C3000094800F090FA0028FAD004F1440304F1C6
:100C400034022146044800F098F808B100F070F82A
:100C500038BD0000A658000830000020F8B5044652
:100C60000E4615460020E060A06006F5C0602060DA
:100C700000202075082020611A480068009002F0CA
:100C800049FB84F834001748017835200155154890
:100C9000008801123620015512488178372001550D
:100CA000A620454338200555C5F3072139200155B5
:100CB000C5F307413A200155290E3B20015500BFDD
:100CC000094800F048FA0028FAD004F1440304F17E
:100CD00034022146044800F050F808B100F028F82A
:100CE000F8BD0000BA5800083000002010B50248D6
:100CF00000F08EFD10BD0000AC01002010B50248D0
:100D000000F086FD10BD00006801002010B502480B
:100D100000F07EFD10BD00002401002010B5024847
:100D200000F076FD10BD0000E000002070470000DC
:100D300072B609E001229103044801F067F801222C
:100D4000D103024801F062F8F4E70000000C014012
:100D500010B5024692F82030012B01D0022B06D1AB
:100D600010684069084314686061002010BD506A33
:100D700040F4802050620120F8E7F0B504460D46AB
:100D80001E4694F8207020688368A86800B900E0C7
:100D900000BF012F01D0022F7CD103F0806030B959
:100DA00003F0006018B903F08050002873D0C3F33B
:100DB0000161022905D9606A40F4000060620120E7
:100DC000F0BD012088403060A86860B9B5F800C067
:100DD000E86840EA4C5C206800F5C07000EB011048
:100DE000C0F800C00FE0D5E901C040EACC00D5F85A
:100DF0000CC040EA0C00D4F800C00CF5C07C0CEB31
:100E0000011CCCF80000D5F810C0206800F5C070B7
:100E100000EB0110C0F804C0287D01280ED1206825
:100E200000F5C07000EB0110406840F4807C206841
:100E300000F5C07000EB0110C0F804C0D0790006C6
:100E400092F806C040EA0C4092F805C040EA0C2C2B
:100E500010794CEA000C206800F5C07000EB01101E
:100E6000C0F80CC0D078000692F802C040EA0C40EE
:100E700092F801C040EA0C2092F800C040EA0C0051
:100E8000D4F800C00CF5C07C0CEB011CCCF80800B9
:100E9000206801E016E00FE000F5C07000EB0110E3
:100EA000006840F0010C206800F5C07000EB0110F4
:100EB000C0F800C0002083E7606A40F40010606260
:100EC00001207DE7606A40F480206062012077E7BE
:100ED000F0B504460A46216894F82050012D01D04F
:100EE000022D74D1D1F8000240F00100C1F80002D7
:100EF000107D00F01F06012000FA06F3D1F81C0255
:100F00009843C1F81C02D069C8B9D1F80C029843C3
:100F1000C1F80C02908880B2968940EA064601F535
:100F20001070576940F83760108880B2168940EA1F
:100F3000064601F51070576900EBC7004660D0699E
:100F4000012819D1D1F80C021843C1F80C0290887D
:100F500080B2168840EA064601F51070576940F8DD
:100F60003760908980B2168940EA064601F5107014
:100F7000576900EBC7004660906928B9D1F80402B0
:100F80009843C1F8040204E0D1F804021843C1F800
:100F90000402106928B9D1F814029843C1F8140268
:100FA00004E0D1F814021843C1F81402106A0128B1
:100FB00004D1D1F81C021843C1F81C02D1F8000278
:100FC00020F00100C1F800020020F0BDFFE7606AD8
:100FD00040F4802060620120F7E7704770B5044656
:100FE00094F82050012D01D0022D7DD151B92068F7
:100FF000C06800F0030080B9606A40F400106062CD
:10100000012070BD2068006900F0030028B9606A03
:1010100040F4001060620120F3E7206800F5D8700A
:1010200000EB0110006800F004009060906840B987
:10103000206800F5D87000EB01100068400D1060CA
:1010400007E0206800F5D87000EB01100068C008C8
:101050005060206800F5D87000EB0110006800F0C7
:101060000200D060206800F5D87000EB01104068E5
:1010700000F00F001061206800F5D87000EB01103F
:10108000406800F47F40000A9061206800F5D87045
:1010900000EB01104068000C5061206800F5D8702A
:1010A00000EB011080681870206800F5D87000EB24
:1010B0000110806800F47F40000A5870206800F535
:1010C000D87000EB0110806800F47F00000C98706D
:1010D000206800F5D87000EB01108068000ED87011
:1010E000206800F5D87000E02FE000EB0110C06828
:1010F0001871206800F5D87000EB0110C06800F48A
:101100007F40000A5871206800F5D87000EB01108C
:10111000C06800F47F00000C9871206800F5D8705A
:1011200000EB0110C068000ED87131B92068C068AA
:1011300040F020002668F06005E02068006940F07B
:1011400020002668306100205BE7606A40F4802060
:101150006062012055E70146002091F82020012A15
:1011600001D0022A11D10B689B6803F0806303B1A0
:10117000401C0B689B6803F0006303B1401C0B68C4
:101180009B6803F0805303B1401C70472DE9F05F6A
:1011900004460025206846692068D0F8049020683D
:1011A00087682068D0F80CA02068D0F810B02068BC
:1011B000D0F8188006F00100002855D007F0010093
:1011C000C0B101202168886007F0020018B12046F4
:1011D00000F095FA0EE007F0040010B145F4006548
:1011E00008E007F0080010B145F4805502E0204601
:1011F00000F084FA07F48070C8B14FF48070216861
:10120000886007F4007018B1204600F07AFA0EE00A
:1012100007F4806010B145F4005508E007F4006061
:1012200010B145F4804502E0204600F069FA07F469
:101230008030C8B14FF480302168886007F40030F6
:1012400018B1204600F05FFA0EE007F4802010B1DC
:1012500045F4004508E007F4002010B145F480355E
:1012600002E0204600F04EFA06F0080038B10AF01D
:10127000100020B145F4007510202168C86006F008
:10128000040040B10AF0080028B108202168C860B5
:10129000204600F0BDF906F0020038B12068C068B1
:1012A00000F0030010B1204600F0B4F906F0400051
:1012B00038B10BF0100020B145F480651020216892
:1012C000086106F0200040B10BF0080028B10820AA
:1012D00021680861204600F0DFF906F0100038B1FF
:1012E0002068006900F0030010B1204600F0D5F935
:1012F00006F4003040B109F0100028B11020216838
:101300004860204600F0CAF906F4803040B109F088
:10131000080028B1082021684860204600F0F4F950
:1013200006F4004088B309F0040078B306F4807036
:1013300020B108F0010008B145F0010506F4007085
:1013400020B108F0020008B145F0020506F4806003
:1013500020B108F0040008B145F0040506F400606F
:10136000A0B108F0700088B108F07000402817D0D4
:1013700006DC10280BD020280CD0302819D10CE026
:10138000502810D0602814D110E01DE019E045F07D
:1013900008050FE045F010050CE045F0200509E0D8
:1013A00045F0400506E045F0800503E045F4807512
:1013B00000E000BF00BF2068806920F07000216855
:1013C00088610420216848602DB1606A284360620A
:1013D0002046FFF702FEBDE8F09F70B504460CB949
:1013E000012070BD94F8200010B9204600F0B0F83C
:1013F0002068006840F001002168086000F00CFDE2
:1014000005460DE000F008FD401B0A2808D9606A77
:1014100040F400306062052084F820000120E0E7FD
:101420002068406800F001000028EBD020680068C8
:1014300020F002002168086000F0EEFC05460DE097
:1014400000F0EAFC401B0A2808D9606A40F400302A
:101450006062052084F820000120C2E7206840680F
:1014600000F002000028EBD1207E012806D1206880
:10147000006840F080002168086005E0206800688E
:1014800020F0800021680860607E012806D1206875
:10149000006840F040002168086005E020680068AE
:1014A00020F0400021680860A07E012806D1206855
:1014B000006840F020002168086005E020680068AE
:1014C00020F0200021680860E07E012806D1206815
:1014D000006820F010002168086005E020680068BE
:1014E00040F0100021680860207F012806D12068A4
:1014F000006840F008002168086005E02068006886
:1015000020F0080021680860607F012806D120686B
:10151000006840F004002168086005E02068006869
:1015200020F0040021680860D4E902010843216921
:101530000843616908436168491E08432168C8611E
:1015400000206062012084F82000002049E70000AC
:1015500010B586B0044600200290039004900590D8
:1015600027492068884249D100BF2648C06940F019
:1015700000702449C8610846C06900F000700190FD
:1015800000BF00BF00BF0846806940F008008861C6
:101590000846806900F00800019000BF00BF881570
:1015A000029000200390049002A9174800F094FADA
:1015B0004FF400700290022003900320059002A9CE
:1015C000114800F089FA00BF1049486820F4C04073
:1015D00040F0E06040F48040486000BF00221146C7
:1015E000132000F09FFC132000F08CFC0022114619
:1015F000142000F097FC142000F084FC06B010BD0D
:101600000064004000100240000C01400000014056
:101610007047000030B589B004461E4920688842F2
:1016200035D16B4602AA00212046FFF7D7FC40F2D5
:1016300081110298884211D101F0D6FD00F5D075D4
:101640001C2202A92846FEF714FF01F0CDFD00F58B
:10165000C4700099C1630199016414E00298B0F567
:10166000C17F10D101F0C0FD00F5F4751C2202A964
:101670002846FEF7FEFE01F0B7FD00F5E870009980
:10168000C1630199016402212046FFF761FB09B0A3
:1016900030BD00000064004070477047704770B56F
:1016A000044694F82000012822D1022084F820006A
:1016B0002068006820F001002168086000F0ACFBA1
:1016C00005460DE000F0A8FB401B0A2808D9606A17
:1016D00040F400306062052084F82000012070BDD5
:1016E0002068406800F001000028EBD16062F6E756
:1016F000606A40F4002060620120F0E770477047A4
:10170000704770477047704770470146002291F854
:101710002100022808D00420886300BF002081F83F
:10172000200000BF012070470868006820F00E000C
:101730000B6818600868006820F001000B681860EA
:1017400091F8403001209840CB6B5860012081F81F
:10175000210000BF002081F8200000BF1046E2E712
:1017600070B50446002594F82100022803D0042017
:10177000A063012548E02068006820F00E00216881
:1017800008602068006820F00100216808601F4997
:101790002068884201D1012026E01C4914312068CC
:1017A000884201D110201FE0184928312068884262
:1017B00001D1801518E015493C312068884201D1DB
:1017C000801411E0114950312068884202D14FF451
:1017D000803009E00D4964312068884202D14FF41D
:1017E000801001E04FF080700849083948600120FE
:1017F00084F8210000BF002084F8200000BF606B47
:1018000010B12046616B8847284670BD0800024031
:1018100070B50446E06B05682068066894F84010CF
:10182000042088402840002846D006F00400002804
:1018300042D02068006800F0200028B920680068C5
:1018400020F004002168086057492068884201D1CF
:10185000042027E0544914312068884201D14020F7
:1018600020E0514928312068884201D1001519E053
:101870004D493C312068884202D14FF4804011E04C
:10188000494950312068884202D14FF4802009E054
:10189000454964312068884202D14FF4800001E05C
:1018A0004FF08060404908394860E06A00287AD0EB
:1018B0002046E16A884776E094F84010022088408C
:1018C0002840A0B306F0020088B32068006800F04A
:1018D000200040B92068006820F00A0021680860F4
:1018E000012084F8210030492068884201D102207B
:1018F00028E02D4914312068884201D1202021E0C0
:10190000294928312068884201D140151AE026492A
:101910003C312068884202D14FF4005012E0224945
:1019200050312068884203D14FF400300AE017E0BC
:101930001D4964312068884202D14FF4001001E053
:101940004FF0007018490839486000BF002084F843
:10195000200000BFA06A30B32046A16A884722E079
:1019600094F84010082088402840E0B106F00800B4
:10197000C8B12068006820F00E002168086094F863
:10198000401001208840E16B48600120A06384F88A
:10199000210000BF002084F8200000BF206B10B1A0
:1019A0002046216B884770BD080002400146002296
:1019B00009B901207047164B0868C01A1423B0FB00
:1019C000F3F08000086412480838C863022081F8E8
:1019D00021000868026843F6F0708243D1E90103F0
:1019E0001843CB6818430B6918434B6918438B693C
:1019F0001843CB69184302430868026000208863DB
:101A0000012081F82100002081F8200000BFD1E7EB
:101A1000080002402DE9F04104460D4616461F46D7
:101A20004FF0000800BF94F82000012802D10220E6
:101A3000BDE8F081012084F8200000BF94F8210067
:101A400001282CD1022084F821000020A063206806
:101A5000006820F00100216808603B4632462946B4
:101A6000204601F06DFCE06A30B12068006840F06B
:101A70000E00216808600BE02068006820F0040078
:101A8000216808602068006840F00A00216808604A
:101A90002068006840F001002168086006E000BF8F
:101AA000002084F8200000BF4FF002084046BFE746
:101AB00070B5044600F0B0F906462546681C10B122
:101AC00004480078054400BF00F0A6F9801BA84236
:101AD000FAD370BD080000202DE9F8470346002224
:101AE00094466EE14FF0010808FA02F4D1F8008044
:101AF00008EA0400A0427DD1DFF8DCA2D1F804801E
:101B0000A8EB0A09D0453AD014DCB8F1030F50D045
:101B100009DCB8F1000F31D0B8F1010F1CD0B8F1D9
:101B2000020F49D120E0B8F1110F18D0B8F1120F0F
:101B300042D11EE0B9F5881F25D006DCB9F5803FFB
:101B400020D0B9F5801F37D11AE0B9F5001F18D0A1
:101B5000B9F5041F30D117E0D1F80CC02DE0D1F851
:101B60000C8008F1040C28E0D1F80C8008F1080C76
:101B700023E0D1F80C8008F10C0C1EE000BF00BF80
:101B800000BF00BF00BF00BFD1F80880B8F1000F50
:101B900002D14FF0040C0BE0D1F80880B8F1010F2E
:101BA00003D14FF0080C1C6102E04FF0080C5C619F
:101BB00003E04FF0000C00E000BF00BFFF2801D899
:101BC000984601E003F104084646FF2802D84FEA90
:101BD000820803E0A2F108084FEA88084746D6F8D1
:101BE00000804FF00F0909FA07F928EA09080CFAF2
:101BF00007F900E088E048EA0908C6F80080D1F853
:101C0000048008F08058B8F1805F7DD100BFDFF814
:101C1000CC81D8F8188048F00108DFF8C091C9F8E5
:101C20001880C846D8F8188008F00108CDF8008060
:101C300000BF00BF4FEAB9384FEA920958F829505F
:101C40004FEA82784FEA18794FF00F0808FA09F83E
:101C500025EA0805DFF88881434502D14FF00008E6
:101C600016E0DFF88081434502D14FF001080FE014
:101C7000DFF87481434502D14FF0020808E0DFF835
:101C80006C81434502D14FF0030801E04FF0040896
:101C90004FEA82794FEA197908FA09F848EA050506
:101CA000DFF84C814FEA920948F82950D1F80480B6
:101CB00008F48038B8F5803F0AD1DFF83881D8F8C9
:101CC000008048EA0008DFF82C91C9F8008009E09C
:101CD000DFF82081D8F8008028EA0008DFF81491A6
:101CE000C9F80080D1F8048008F40038B8F5003F46
:101CF00010D1DFF8008108F10408D8F8008048EA24
:101D00000008DFF8F09000E05AE009F10409C9F892
:101D100000800DE0DFF8DC8008F10408D8F80080CE
:101D200028EA0008DFF8CC9009F10409C9F800801E
:101D3000D1F8048008F48018B8F5801F0ED1DFF8C0
:101D4000B48008F10808D8F8008048EA0008DFF8F5
:101D5000A49009F10809C9F800800DE0DFF894802B
:101D600008F10808D8F8008028EA0008DFF8849015
:101D700009F10809C9F80080D1F8048008F40018B6
:101D8000B8F5001F0ED1DFF86C8008F10C08D8F808
:101D9000008048EA0008DFF85C9009F10C09C9F8F6
:101DA00000800DE0DFF84C8008F10C08D8F80080C6
:101DB00028EA0008DFF83C9009F10C09C9F8008016
:101DC000521CD1F8008028FA02F8B8F1000F7FF415
:101DD00089AEBDE8F8870000000011100010024035
:101DE00000080140000C01400010014000140140B7
:101DF000080001400004014010B5C26821EA020356
:101E000002EA010443EA0443036110BD0AB101611F
:101E100001E00B040361704701480068704700004F
:101E2000000000200348006803490978084401497C
:101E300008607047000000200800002010B5084826
:101E4000006840F0100006490860032000F0A8F880
:101E50000F2000F007F800F02BF8002010BD000064
:101E60000020024070B504460E4800784FF47A71A5
:101E7000B1FBF0F00C490968B1FBF0F5284600F021
:101E80000BFC08B1012070BD102C07D200222146A6
:101E9000501E00F047F80548046001E00120F2E719
:101EA0000020F0E7080000200C00002004000020C3
:101EB00008B500BF1148806940F001000F498861F2
:101EC0000846806900F00100009000BF00BF00BF1D
:101ED0000846C06940F08050C8610846C06900F0FB
:101EE0008050009000BF00BF00BF0549486820F047
:101EF000E06000BF486000BF08BD00000010024065
:101F00000000014001460846002809DB00F01F03DD
:101F100001229A4043099B0003F1E023C3F800210A
:101F200000BF70472DE9F05F80460D46164600273A
:101F300001F046FC074639462A46334601F00700C1
:101F4000C0F1070ABAF1040F02D94FF0040A01E008
:101F5000C0F1070AD14600F1040ABAF1070F02D214
:101F60004FF0000A01E0A0F1030AD4464FF0010A45
:101F70000AFA09FAAAF1010A0AEA020A0AFA0CFAAA
:101F80004FF0010B0BFA0CFBABF1010B0BEA030B4F
:101F90004AEA0B042146404601F0FEFBBDE8F09FF3
:101FA00000BF00F00702064B19684FF6FF03194007
:101FB000044B0B4343EA0221014B196000BF7047F9
:101FC0000CED00E00000FA0570B504460D460CB9B2
:101FD000012070BD5A48006800F00700A8420ED2E8
:101FE0005748006820F00700284355490860084614
:101FF000006800F00700A84201D00120E9E720783E
:1020000000F0020002281DD1207800F0040004280E
:1020100005D14C48406840F4E0604A494860207867
:1020200000F00800082805D14648406840F4605098
:10203000444948604348406820F0F000A1680843E4
:1020400040494860207800F0010078B360680128BA
:1020500006D13C48006800F4003090B90120B8E790
:102060006068022806D13748006800F0007040B967
:102070000120AEE73348006800F0020008B90120F3
:10208000A7E73048406820F00300616808432D4905
:102090004860FFF7C1FE064609E0FFF7BDFE801B62
:1020A00041F28831884202D9032092E707E02548AF
:1020B000406800F00C006168B0EB810FEDD1204862
:1020C000006800F00700A8420ED91D48006820F003
:1020D000070028431A4908600846006800F0070016
:1020E000A84201D0012074E7207800F00400042801
:1020F00007D11448406820F4E060E16808431149C2
:102100004860207800F00800082808D10D48406891
:1021100020F46050216940EAC1000A49486000F09B
:102120003FF808494968C1F30311074A515CC840A8
:102130000649086006480068FFF794FE002048E75B
:1021400000200240001002408E5800080C000020C1
:102150000400002001480068704700000C000020C7
:1021600000B5FFF7F7FF04494968C1F30221034AAC
:10217000515CC84000BD0000001002409E5800089D
:1021800000B5FFF7E7FF04494968C1F3C221034ADC
:10219000515CC84000BD0000001002409E5800087D
:1021A000F0B585B00FF26C0C9CE8E01001A8A0E837
:1021B000E0101CA52D6800950021002200230024BA
:1021C0000020194D696801F00C05EDB1042D02D015
:1021D000082D1AD101E0154819E001ADC1F383467D
:1021E000AC5D01F4803555B10F4D6D68C5F34045C8
:1021F0001DF805200D4D6543B5FBF2F302E00C4DD3
:1022000004FB05F3184602E000BF084800BF00BF0A
:1022100005B0F0BD02030405060708090A0B0C0D02
:102220000E0F1010010200000010024000127A0090
:1022300000093D00F8B504460CB90120F8BD20782E
:1022400000F00100002878D0F848406800F00C0049
:1022500004280CD0F548406800F00C00082811D183
:10226000F248406800F48030B0F5803F0AD1EF4872
:10227000006800F4003000285FD0606800285CD15E
:102280000120DBE700BF6068B0F5803F06D1E7487A
:10229000006840F48030E549086028E0606858B97B
:1022A000E248006820F48030E04908600846006891
:1022B00020F4802008601AE06068B0F5A02F0BD1F0
:1022C000DA48006840F48020D84908600846006871
:1022D00040F4803008600AE0D448006820F4803080
:1022E000D24908600846006820F48020086000BFDA
:1022F000606888B1FFF790FD054606E0FFF78CFDAA
:10230000401B642801D9032098E7C848006800F4FE
:1023100000300028F2D010E0FFF77EFD054606E011
:10232000FFF77AFD401B642801D9032086E7BF48E8
:10233000006800F400300028F2D1207800F002009C
:10234000022857D1B948406800F00C0050B1B74896
:10235000406800F00C00082818D1B448406800F428
:10236000803098B9B148006800F0020020B12069BF
:10237000012801D0012061E7AC48006820F0F80096
:10238000616940EAC100A949086033E02069E8B109
:102390000120A7490860FFF73FFD054606E0FFF76B
:1023A0003BFD401B022801D9032047E79F480068F6
:1023B00000F002000028F2D09C48006820F0F800ED
:1023C000616940EAC1009949086013E0002098491A
:1023D0000860FFF721FD054606E0FFF71DFD401BE5
:1023E000022801D9032029E79048006800F0020084
:1023F0000028F2D1207800F0080008282DD1A0692B
:10240000B8B101208B490860FFF706FD054606E0DC
:10241000FFF702FD401B022801D903200EE7834885
:10242000406A00F002000028F2D0012000F09EFF78
:1024300013E000207F490860FFF7EEFC054606E048
:10244000FFF7EAFC401B022801D90320F6E6774893
:10245000406A00F002000028F2D1207800F0040069
:10246000042873D100277148C06900F0805070B90A
:1024700000BF6E48C06940F080506C49C861084692
:10248000C06900F08050009000BF00BF01276A487B
:10249000006800F48070B0B96748006840F480704C
:1024A00065490860FFF7B8FC054606E0FFF7B4FC95
:1024B000401B642801D90320C0E65F48006800F48F
:1024C00080700028F2D000BFE068012806D157488C
:1024D000006A40F001005549086227E0E06858B9F9
:1024E0005248006A20F00100504908620846006A1C
:1024F00020F00400086219E0E06805280BD14B4881
:10250000006A40F00400494908620846006A40F049
:10251000010008620AE04548006A20F001004349D2
:1025200008620846006A20F00400086200BFE06804
:10253000A0B1FFF771FC054609E0FFF76DFC401BF9
:1025400041F28831884202D9032077E622E03748F9
:10255000006A00F002000028EFD012E0FFF75CFCF8
:10256000054608E0FFF758FC401B41F288318842DD
:1025700001D9032062E62D48006A00F0020000281D
:10258000F0D1012F05D12948C06920F0805027499A
:10259000C86100BFE069C8B32448406800F00C007F
:1025A000082860D0E069022848D100202049086648
:1025B000FFF732FC054606E0FFF72EFC401B022821
:1025C00001D903203AE61948006800F0007000289D
:1025D000F2D1206AB0F5803F07D11448406820F45A
:1025E0000030A168084311494860D4E90801084354
:1025F0000E49496821F4741108430C4948600120D0
:102600000B490866FFF708FC054607E03DE0FFF7C9
:1026100003FC401B022801D903200FE60348006891
:1026200000F000700028F2D02FE0000000100240FF
:1026300000004242800442420070004000201449E1
:102640000866FFF7E9FB054606E0FFF7E5FB401BE0
:10265000022801D90320F1E50E48006800F000705F
:102660000028F2D111E0E069012800D1E6E509482F
:10267000466806F48031206A814204D106F4701164
:10268000606A814201D00120D8E50020D6E5000033
:10269000000042420010024070B504462546681E04
:1026A000B0F1807F01D301200FE0681E4FF0E021E0
:1026B00048610F214FF0FF3001F06EF800204FF01D
:1026C000E021886107200861002070BD704770B567
:1026D0000446002520684069C0F3C01594F83D0009
:1026E00021280ED16DB12068406920F0800021685A
:1026F0004861606B10B1606BFFF707F8204600F08F
:10270000BCFF20684069C0F3801594F83E00222881
:102710000ED16DB12068406920F040002168486109
:10272000A06B10B1A06BFEF7F0FF204600F08AFF0F
:10273000002070BD704700002DE9F84F0446206866
:1027400005682068C668206847694FF00009CA46D6
:1027500005F00F09B9F1000F0AD105F0200038B1DA
:1027600006F0200020B1204600F0BAFEBDE8F88F48
:10277000B9F1000F71D007F0010018B906F490709C
:1027800000286AD005F0010030B106F4807018B15D
:10279000206C40F00100206405F0040030B107F027
:1027A000010018B1206C40F00200206405F0020026
:1027B00030B107F0010018B1206C40F00400206433
:1027C00005F0080048B106F0200010B907F001003C
:1027D00018B1206C40F008002064206C68B305F04C
:1027E000200028B106F0200010B1204600F078FE4D
:1027F00020684069C0F3801A206C00F0080010B90E
:10280000BAF1000F22D0204600F01CFF206840697A
:1028100000F04000B0B12068406920F0400021681D
:102820004861A06B50B15648A16B4863A06BFEF79E
:1028300097FF10B1A06B416B88470CE02046FFF773
:1028400079FF08E02046FFF775FF04E02046FFF718
:1028500071FF0020206489E7FFE7206B012878D111
:1028600005F01000002874D006F01000002870D089
:1028700000BF002000902068006800902068406839
:10288000009000BF00BF2068406900F04000C0B366
:10289000A06B006840681FFA80F8B8F1000F2FD0D5
:1028A000A08D40452CDDA4F82E80A06B80692028E7
:1028B0001FD02068C06820F480702168C86020683C
:1028C000406920F00100216848612068406920F0DB
:1028D000400021684861202084F83E0000202063E9
:1028E0002068C06820F010002168C860A06BFEF767
:1028F0000CFFA08DE28D801A81B22046FFF7E6FE24
:1029000034E7FFE7A08DE18D401A1FFA80F8E08DD3
:10291000E8B1B8F1000F1AD02068C06820F49070B8
:102920002168C8602068406920F001002168486182
:10293000202084F83E00002020632068C06820F03A
:1029400010002168C86041462046FFF7BFFE0DE732
:10295000FFE705F0800030B106F0800018B1204696
:1029600000F030FE02E705F0400030B106F0400014
:1029700018B1204600F0BFFEF8E600BFF6E6000002
:102980001737000810B504460CB9012010BDA06926
:1029900000B100E000BF94F83D0028B9002084F8A1
:1029A0003C00204600F028F8242084F83D002068F0
:1029B000C06820F400502168C860204600F012FD75
:1029C0002068006920F4904021680861206840690F
:1029D00020F02A00216848612068C06840F4005057
:1029E0002168C86000202064202084F83D0084F81D
:1029F0003E000020CAE7000010B586B00446002063
:102A000002900390049005907149206888426CD12F
:102A100000BF7048806940F480406E498861084674
:102A2000806900F48040019000BF00BF00BF0846ED
:102A3000806940F0040088610846806900F0040065
:102A4000019000BF00BF48150290022003900320B0
:102A5000059002A96048FFF73FF84FF480600290AC
:102A600000200390049002A95B48FFF735F85B480B
:102A70005B4908600020486000215948816080213E
:102A8000C160002101614161202181610021C1619A
:102A9000FEF78CFF08B1FEF74BF900BF5048A0636A
:102AA000446200BF4D4814384E4908601020486009
:102AB00000214C4881608021C16000210161416199
:102AC0008161C161FEF772FF08B1FEF731F900BF05
:102AD00044486063446200BF002211462520FFF78E
:102AE00021FA2520FFF70EFA70E03F49206888425E
:102AF0006CD100BF3748C06940F480203549C861B7
:102B00000846C06900F48020019000BF00BF00BFEC
:102B10000846806940F0080088610846806900F036
:102B20000800019000BF00BF08150290022003902A
:102B30000320059002A92D48FEF7CEFF4FF4006058
:102B4000029000200390049002A92848FEF7C4FFD9
:102B5000224828382649086000204860002124487F
:102B600081608021C160002101614161202181617A
:102B70000021C161FEF71AFF08B1FEF7D9F800BFC6
:102B80001B48A063446200BF14483C3819490860E0
:102B9000102048600021174881608021C160002119
:102BA000016141618161C161FEF700FF08B1FEF77B
:102BB000BFF800BF0F486063446200BF00221146A7
:102BC0002720FFF7AFF92720FFF79CF906B010BDCB
:102BD0000038014000100240000801405800024047
:102BE000E00000202401002000480040000C0140CB
:102BF00068010020AC01002070B504460D46164661
:102C000094F83E00202816D105B10EB9012070BD00
:102C100000BF94F83C00012801D10220F7E7012011
:102C200084F83C0000BF002020633246294620463D
:102C300000F0EEF9EBE70220E9E7704770472DE975
:102C4000F84F04460E46174699464FF0000A94F88E
:102C50003D0020285AD106B117B90120BDE8F88FF0
:102C600000BF94F83C00012801D10220F6E70120C2
:102C700084F83C0000BF00202064212084F83D003F
:102C8000FFF7CAF88246A784E784A068B0F5805FA2
:102C900004D1206910B90025B04602E035464FF056
:102CA000000800BF002084F83C0000BF1BE0534632
:102CB000002280212046CDF8009000F036FD08B1BA
:102CC0000320CBE745B9B8F80000C0F3080021683D
:102CD000486008F1020803E02878216848606D1C0C
:102CE000E08C401EE084E08C0028E0D153460022B6
:102CF00040212046CDF8009000F017FD08B10320D8
:102D0000ACE7202084F83D000020A7E70220A5E7DB
:102D1000704700BFFEE7000010B50D480D49086080
:102D20000C20486000210B488160C1604FF40031E5
:102D30000161C90041610021017641768176C17649
:102D400001774177FEF749FB08B1FDF7F1FF10BDB0
:102D5000006400403000002008B500BF16484069FC
:102D600040F00100144948610846406900F0010044
:102D7000009000BF00BF002211460C20FFF7D2F8E0
:102D80000C20FFF7BFF8002211460D20FFF7CAF80C
:102D90000D20FFF7B7F8002211460E20FFF7C2F80A
:102DA0000E20FFF7AFF8002211460F20FFF7BAF808
:102DB0000F20FFF7A7F808BD0010024000B585B04E
:102DC0000020019002900390049000BF1D4880698C
:102DD00040F020001B4988610846806900F020000F
:102DE000009000BF00BF00BF0846806940F00800A7
:102DF00088610846806900F00800009000BF00BFAD
:102E000000BF0846806940F0040088610846806978
:102E100000F00400009000BF00BF00224FF44041CA
:102E20000948FEF7F3FF4FF4404001900120029063
:102E3000002003900320049001A90348FEF74CFEF4
:102E400005B000BD00100240000C014010B50B4859
:102E50000B4908604FF4E130486000210848816068
:102E6000C16001610C21416100218161C161FFF7F5
:102E700089FD08B1FDF75CFF10BD0000003801407E
:102E80005800002010B50B480B4908604FF4E130A2
:102E90004860002108488160C16001610C214161E6
:102EA00000218161C161FFF76DFD08B1FDF740FFB1
:102EB00010BD0000004800409C00002000BFFEE75D
:102EC00000BFFEE7704700002DE9F04106460024F0
:102ED00036B1022E23D0042E40D0052E7DD15FE0E6
:102EE00024252846FDF77CF9044600F07DF9018889
:102EF00021808078A0702021A17000F075F900F584
:102F0000817720223946E01CFDF76EFA681EC1B2B7
:102F10002046FDF71DFD611901F8010C62E0442512
:102F20002846FDF75DF9044600F05EF9018821802E
:102F30008078A0704021A17000F056F900F59177DB
:102F400040223946E01CFDF74FFA681EC1B2204608
:102F5000FDF7FEFC611901F8010C43E000F044F9B3
:102F600000F5807700F040F950F8031F47F8621F22
:102F70008088B88004252846FDF732F9044600F021
:102F800033F9018821808078A0700021A170681E2B
:102F9000C1B22046FDF7DCFC611901F8010C21E00B
:102FA00014252846FDF71CF9044600F01DF9018898
:102FB00021808078A0701021A17000F015F900F533
:102FC000B47710223946E01CFDF70EFA681EC1B234
:102FD0002046FDF7BDFC611900E002E001F8010C9C
:102FE00000E000BF00BF0A232A4621460448FFF73D
:102FF00026FE2046FDF723F90024BDE8F0810000FD
:1030000058000020704710B5FEF70CFF10BD704748
:1030100077B581B0044615460298A062A5850020C8
:103020002064222084F83E001C48A16B88621C4862
:10303000A16BC8621B48A16B08630020A16B4863A9
:1030400002AE32682368191D2B46A06BFEF7E2FC26
:1030500000BF002000902068006800902068406851
:10306000009000BF00BF00BF002084F83C0000BFFC
:103070002068C06840F480702168C860206840699A
:1030800040F00100216848612068406940F040003C
:1030900021684861002004B070BD00008F36000830
:1030A000253600089533000810B50348FFF744FBA8
:1030B000014800F041F810BD5800002010B502484A
:1030C000FFF73AFB10BD00009C00002010B502483D
:1030D000FEF75CF810BD00003000002010B502487B
:1030E000FEF754F810BD00003000002070B5044613
:1030F0000E492068884218D10D48FFF7E8FA00F021
:1031000073F80C4909684968C1F1FF01C0F83C1225
:1031100000F06AF80121C0F8401200F065F8054699
:10312000FF2229460248FFF767FD70BD00380140C5
:1031300058000020E000002038B504460D49206802
:10314000884215D10C4800680068C0F3001078B1BF
:1031500000BF002000900848006800680090064802
:1031600000684068009000BF00BF2046FFF7BEFF28
:1031700038BD0000003801405800002000BFFEE7C5
:1031800000B58FB0282105A8FDF7C7F914216846BE
:10319000FDF7C3F901200590000406900020079078
:1031A0000120099002200C90C1030D914FF4E01111
:1031B0000E9105A8FFF73EF808B1FDF7B9FD0F2005
:1031C000009002200190002002904FF48060039054
:1031D0000020049002216846FEF7F6FE08B1FDF7D4
:1031E000A7FD0FB000BD704710B50848007800F08B
:1031F000010048B9054801F071F828B1044800F011
:1032000009F80248AFF30080014810BD20000020FB
:103210006802002038B50446FF212046FDF75BF91F
:10322000402104F59170FDF756F9002104F5B170C5
:10323000C4F86211A4F866111021801DFDF74BF946
:10324000242104F50670FDF746F99B20A4F822011D
:103250004FF4DC7104F59170A4F8241142F210715E
:10326000A4F8261100214FF49470015504F59170D3
:10327000A4F82911A4F82B11A4F82D11A4F82F11EA
:103280000A21A4F831114FF4FA71A4F83311A4F80B
:1032900035118900A4F83711002140F23910015589
:1032A000282104F59170A4F83A1101214FF49E7081
:1032B00001550F21401C0155401C015506220AA151
:1032C00004F58170FDF750F94FF49F70005D009098
:1032D00040F23D10035D06A208A104F58970FCF7D9
:1032E000D5FF204638BD000076312E312E3100004A
:1032F00032303232303330310000000025732D6D12
:1033000025646525640000004FF0E0200069C0F3EB
:103310000040704701B59DF8030002280CD0042836
:1033200004D0062806D0072808D101E0232008BDD4
:103330002320FCE72B20FAE72F20F8E70020F6E710
:1033400030B590F840500124AC40C56B6C60046807
:1033500063604468102C04D10468A2600468E160D2
:1033600003E00468A1600468E26030BD08B5084964
:103370000968C9084FF47A72B1FBF2F14143009138
:1033800000BF00BF00994A1E00920029F9D108BD74
:103390000C00002070B506460025746A206840695C
:1033A000C0F3C01594F83D00212805D125B10020B7
:1033B000E084204600F061F920684069C0F3801580
:1033C00094F83E00222805D125B10020E085204652
:1033D00000F038F9206C40F0100020642046FFF720
:1033E000A9F970BD70B504462168096921F44051FE
:1033F000E2681143226811612269A1681143626980
:1034000041EA02052168C96841F20C6291432943EF
:103410002268D1602168496921F44071A269114391
:10342000226851612D4A2168914202D1FEF7A8FE1F
:1034300001E0FEF795FE00EBC00101EB00116268B0
:103440009200B1FBF2F100EBC00202EB00126368E4
:103450009B00B2FBF3F26423B2FBF3F202EBC20374
:1034600003EB0212A1EB8201322202EB0111642272
:10347000B1FBF2F101F0F00100EBC00202EB00122F
:1034800063689B00B2FBF3F26423B2FBF3F201EB3F
:10349000021200EBC00101EB001163689B00B1FB5D
:1034A000F3F100EBC00303EB00136668B600B3FB57
:1034B000F6F36426B3FBF6F303EBC30606EB031344
:1034C000A1EB8301322303EB01116423B1FBF3F180
:1034D00001F00F0111442268916070BD0038014075
:1034E000F8B5044694F83E00222869D1A068B0F5EA
:1034F000805F0CD1206950B90025A66A2068406819
:10350000C0F308003080A06A801CA06215E0A56AA4
:103510000026A068B0F5805F03D0A06828B92069B4
:1035200018B920684068287004E02068406800F0FE
:103530007F002870A06A401CA062E08D401E80B20F
:10354000E085A8BB2068C06820F020002168C86022
:103550002068C06820F480702168C86020684069D5
:1035600020F0010021684861202084F83E00206B93
:1035700001281ED1002020632068C06820F01000C0
:103580002168C8602068006800F0100010280AD187
:1035900000BF00200090206800680090206840680C
:1035A000009000BF00BFA18D2046FFF78FF803E019
:1035B00004E02046FFF741FB0020F8BD0020FCE7B7
:1035C0000220FAE7014691F83D00212828D18868B9
:1035D000B0F5805F0BD1086948B90A6A1088C0F35A
:1035E00008000B685860086A801C086205E00B6AD6
:1035F000581C086218780B685860C88C401E80B24E
:10360000C88458B90868C06820F080000B68D8608A
:103610000868C06840F040000B68D8600020704720
:103620000220FCE770B505466C6A206B012805D1C5
:10363000A08D41082046FFF749F802E02046FFF739
:10364000FDFA70BD0168C96821F490710268D1600B
:103650000168496921F0010102685161016B01298A
:1036600005D10168C96821F010010268D1602021EC
:1036700080F83E100021016370470168C96821F09D
:10368000C0010268D160202180F83D10704770B5FC
:1036900005466C6A2868006800F02000F8B9002030
:1036A000E0852068C06820F480702168C8602068C8
:1036B000406920F00100216848612068406920F0DD
:1036C000400021684861202084F83E00206B0128DA
:1036D00005D12068C06820F010002168C860206B08
:1036E000012804D1A18D2046FEF7F0FF02E020461C
:1036F000FFF7A3FA70BD10B504462068C06820F03B
:1037000040002168C860202084F83D002046FFF773
:10371000FFFA002010BD70B505466C6A0020E085F8
:10372000E0842046FFF706F870BD2DE9F04104461D
:103730000D4617469846069E21E0701CF8B12EB142
:10374000FEF76AFBA0EB0800B04218D92068C068F9
:1037500020F4D0702168C8602068406920F0010022
:1037600021684861202084F83D0084F83E0000BFB5
:10377000002084F83C0000BF0320BDE8F0812068F1
:1037800000682840A84201D1012000E00020B84292
:10379000D3D00020F1E7000010B5002804DB0A07B1
:1037A000130E054A135406E00A07140E034A00F0EC
:1037B0000F031B1FD45410BD00E400E018ED00E01F
:1037C00002480068C0F30220704700000CED00E0E2
:1037D00070B50546FFF708FD00F5B47410212046CA
:1037E000FCF779FEFFF700FD00F5BC7410212046C0
:1037F000FCF771FEFFF7F8FC90F8C441FFF7F4FC0A
:1038000090F8C50104EB0024FFF7EEFC90F8C60128
:1038100004EB0044FFF7E8FC90F8C70104EB0064F8
:10382000FFF7E2FCC0F87841FFF7DEFC90F80C42AD
:10383000FFF7DAFC90F80D0204EB0024FFF7D4FC4C
:1038400090F80E0204EB0044FFF7CEFC90F80F0254
:1038500004EB0064FFF7C8FCC0F87C4170BD10B5F4
:103860000446204600F007F8204600F001FA204602
:1038700000F0D4FB10BD70B50446FFF7B5FCD0F8DE
:103880004002012800D070BDFFF7AEFC00785A2836
:1038900000D0F8E7FFF7A8FC4078092829D2DFE834
:1038A00000F005090A13171E252627000020FFF740
:1038B0000BFB1FE01EE0FFF797FC0546FFF793FCAC
:1038C0000220FFF701FB15E02046FFF781FF11E022
:1038D0000420FFF7F9FA204600F022F80AE020461B
:1038E00000F09CFB0520FFF7EFFA03E002E001E0A7
:1038F00000BF00BF00BF204600F090FBFFF774FC44
:103900000546FF21FCF7E7FDFFF76EFC0021C0F83C
:103910004012FFF769FC0021C0F83C1200BFB2E77B
:103920002DE9F04F9BB00446FFF75EFCB0F96271E1
:10393000FFF75AFCB0F8330100B24042874204DD81
:10394000FFF752FCB0F9627105E0FFF74DFCB0F8EB
:10395000330100B24742FFF747FCB0F8330100B231
:10396000874217DAFFF740FCB0F96271FFF73CFCC1
:10397000B0F8330100B24042874204DDFFF734FC67
:10398000B0F962010BE0FFF72FFCB0F8330100B291
:10399000404204E0FFF728FCB0F8330100B205B262
:1039A000FFF722FCB0F96471FFF71EFCB0F8350197
:1039B00000B24042874204DDFFF716FCB0F96471A3
:1039C00005E0FFF711FCB0F8350100B24742FFF700
:1039D0000BFCB0F8350100B2874217DAFFF704FCA0
:1039E000B0F96471FFF700FCB0F8350100B2404255
:1039F000874204DDFFF7F8FBB0F964010BE0FFF745
:103A0000F3FBB0F8350100B2404204E0FFF7ECFBF5
:103A1000B0F8350100B206B2FFF7E6FBB0F9667107
:103A2000FFF7E2FBB0F8370100B24042874204DD05
:103A3000FFF7DAFBB0F9667105E0FFF7D5FBB0F8E8
:103A4000370100B24742FFF7CFFBB0F8370100B2B1
:103A5000874217DAFFF7C8FBB0F96671FFF7C4FBBE
:103A6000B0F8370100B24042874204DDFFF7BCFBEB
:103A7000B0F966010BE0FFF7B7FBB0F8370100B211
:103A8000404204E0FFF7B0FBB0F8370100B20FFA94
:103A900080F9284601F013F9074600226C4B00F02C
:103AA00087FFCDE91401304601F009F907460022ED
:103AB000674B00F07DFFCDE91601484601F0FFF8A5
:103AC00007460022624B00F073FFCDE91801FFF7B3
:103AD0008BFBB0F822A1504601F008F907465D4A79
:103AE0005D4B01F017F9CDE91001FFF77DFBB0F850
:103AF0003A71384601F0FAF8CDE90A01FFF774FB94
:103B0000B0F82471384601F0F1F8CDE90201DDE9A1
:103B100018733A4601F0FEF882464E4A4F4B01F0C8
:103B2000F9F8CDE90401DDE914733A4601F0F0F942
:103B300000224B4BCDE9060101F0ECF8CDE908017C
:103B4000DDE90A2301F0E6F8464A474BCDE90C01CE
:103B500000F02EFFCDE90E01DDE9102300F028FF73
:103B6000CDE9120101F07CF840490860FFF73CFB09
:103B7000B0F822A1504601F0B9F80746354A364B55
:103B800001F0C8F8CDE91001FFF72EFBB0F83A714B
:103B9000384601F0ABF8CDE90A01FFF725FBB0F894
:103BA0002471384601F0A2F8CDE90001DDE918736F
:103BB0003A4601F0AFF8274A284BCDE9020101F05F
:103BC000A9F882460B46DDE9140181F00041524616
:103BD000CDE9040101F0A8F90022214BCDE906014D
:103BE00001F098F8CDE90801DDE90A2301F092F827
:103BF0001C4A1D4BCDE90C0100F0DAFECDE90E01A7
:103C0000DDE9102300F0D4FECDE9120101F028F81F
:103C100016494860FFF7E8FA00F5C4771348012118
:103C200002683846FDF71AF8FFF7DEFA00F5E87784
:103C30000E48022142683846FDF710F800F0D4FC27
:103C40004FF47A71B0FBF1F020601BB0BDE8F08F4B
:103C500000005940FCA9F1D24D62503F4D62403FF7
:103C600000004E40182D4454FB210940180000204C
:103C700070B5044600F0B8FC4FF47A71B0FBF1F077
:103C80002168401A962816D9FFF7AEFA00F5C475D8
:103C9000002201212846FCF7E1FFFFF7A5FA00F515
:103CA000E875002202212846FCF7D8FF4FF4804136
:103CB0000148FEF7A1F870BD000C014010B508489E
:103CC000007800F0010048B9054800F007FB28B172
:103CD000044800F0E3FA0248AFF30080014810BD49
:103CE000240000202800002070B504466A48FCF734
:103CF00001FEFFF779FA00F5C4750022012128467C
:103D0000FCF704FFFFF770FA00F5E87500220221C6
:103D10002846FCF7FBFE4FF4FA60FDF7C9FEFFF7FB
:103D200063FA00F5C47501212846FCF755FFFFF73B
:103D30005BFA00F5E87502212846FCF74DFF0120EB
:103D4000FDF7B6FEFFF750FA00F5C47501212846CD
:103D5000FCF700FFFFF748FA00F5E8750221284656
:103D6000FCF7F8FE0120FDF7A3FEFFF73DFA00F592
:103D7000C4754FF47A7201212846FCF7F5FDFFF770
:103D800033FA00F5E8754FF47A7202212846FCF701
:103D9000EBFD0120FDF78CFEFFF726FA00F5C47558
:103DA0004FF47A7201212846FCF768FEFFF71CFAEF
:103DB00000F5E8754FF47A7202212846FCF75EFEA2
:103DC0000120FDF775FEFFF70FFA00F5C475062216
:103DD00001212846FCF710FEFFF706FA00F5E8750A
:103DE000062202212846FCF707FE0120FDF760FEAF
:103DF000FFF7FAF900F5C475072201212846FCF700
:103E0000FBFDFFF7F1F900F5E875072202212846CE
:103E1000FCF7F2FD0120FDF74BFEFFF7E5F900F599
:103E2000C4750F2201212846FCF7E6FDFFF7DCF9F7
:103E300000F5E8750F2202212846FCF7DDFD012080
:103E4000FDF736FEFFF7D0F900F5C47501221146E3
:103E50002846FCF75BFEFFF7C7F900F5E87501227D
:103E600002212846FCF752FE6420FDF721FE204681
:103E7000FFF7AEFC09480068C06840F01000074931
:103E80000968C860FFF7B0F90546FF2229460348D4
:103E9000FEF7B2FE70BD0000300000205800002088
:103EA0002DE9F04F8BB00C4615461E46686880F031
:103EB00000400490296801F04DF9059001F01EF9C9
:103EC000824600224FF0804300F072FD074600F06A
:103ED00095FC0A90FFF788F9B0F824A1504600F04D
:103EE00005FF07464A4A4B4B00F014FFCDE902019B
:103EF000286880F000484046696801F0E3FB074607
:103F000001F0FCF8CDE90001DDE9022300F050FDED
:103F1000CDE9040100F072FC8146304601F0B8FAA8
:103F200007463D480A9901F0C7FA8046394601F034
:103F300085F90990304601F0ABFA07464946364804
:103F400001F0BAFA8046394601F078F908900998EC
:103F5000E0600020206108986061002007900690D2
:103F6000D5E9000101F02CFA41D0484600F097F95C
:103F700007460A9901F0A0FA0790484600F095F923
:103F800080F0004738460A9901F096FA0690A0683A
:103F900000F08BF98346069901F08EFA8046A068FE
:103FA00000F07DF98346079901F086FA8246414682
:103FB00001F088FB0746216801F0CCF82060A0687A
:103FC00000F06DF98346069901F076FA8046A06804
:103FD00000F06BF98346079901F06EFA824641467C
:103FE00001F0B8F80746616801F0B4F86060D5E9FF
:103FF000000101F0AFF80746002101F0E1F904D01B
:10400000A068494601F0A6F8A0600BB0BDE8F08FAB
:104010009A9999999999B93F00007A442DE9F04FFE
:1040200087B0044600F0E0FA4FF47A71B0FBF1F08B
:104030006168401A32287DD9FFF7D6F890F8C4514C
:10404000FFF7D2F890F8C50105EB0025FFF7CCF893
:1040500090F8C60105EB0045FFF7C6F890F8C701D8
:1040600005EB0065FFF7C0F8C0F88051FFF7BCF81A
:1040700090F80C52FFF7B8F890F80D0205EB002508
:10408000FFF7B2F890F80E0205EB0045FFF7ACF829
:1040900090F80F0205EB0065FFF7A6F8C0F8845111
:1040A000FFF7A2F8D0F88061FFF79EF8D0F878010A
:1040B000351A284601F0D4F972490860FFF794F8E0
:1040C000D0F88461FFF790F8D0F87C01351A2846C3
:1040D00001F0C6F96B494860FFF786F8B0F8229105
:1040E000484600F003FE0746674A684B00F012FEA0
:1040F00005460E46FFF778F8B0F83AA1504601F0B1
:10410000C7F90190FFF770F8B0F826B1584601F0F2
:10411000BFF982465B490868514601F08FF800906C
:10412000019901F08BF8814600F0E8FF0746584AF4
:10413000584B00E0A2E000F0EDFD2A463346CDE901
:10414000020100F0E7FDCDE9040100F057FB4D4905
:104150000860FFF749F8B0F82291484600F0C6FD24
:104160000746494A494B00F0D5FDCDE90201FFF76A
:104170003BF8B0F83AA1504601F08AF90190FFF7F8
:1041800033F8B0F826B1584601F082F982463D492D
:104190004868514601F052F80090019901F04EF83C
:1041A000814600F0ABFF0746394A3A4B00F0B2FDBA
:1041B0000546DDE9022300F0ADFDCDE9040100F084
:1041C0001DFB3049486000F00FFA4FF47A71B0FBE4
:1041D000F1F06168451A2B462A4A2F492046FFF71D
:1041E0005FFE2D49C86801F01FF905B2FEF7FCFF1C
:1041F000A0F868512849086901F016F905B2FEF7E0
:10420000F3FFA0F86A512449486901F00DF905B29D
:10421000FEF7EAFFA0F86C511F49086801F004F9A5
:104220000546FEF7E1FFC0F86E511B49486801F0F2
:10423000FBF80546FEF7D8FFC0F8725116498868AA
:1042400001F0F2F805B2FEF7CFFFA0F87651FEF7C5
:10425000CBFFD0F88051FEF7C7FFC0F87851FEF7CA
:10426000C3FFD0F88451FEF7BFFFC0F87C5100F0C7
:10427000BBF94FF47A71B0FBF1F0606007B0BDE8B4
:10428000F08F0000100000209A9999999999B93FF0
:10429000182D4454FB210940F0010020704710B54F
:1042A0000446204600F0E2F810BD10B50446204652
:1042B00000F0E0F910BD4100080218BF04200A0E0A
:1042C00018BF40F001004FF07F4232EA010108BF01
:1042D00040F00200012808BF05207047016809B1BD
:1042E000002070470121016008467047012101F05C
:1042F00090BA0021084600F0A1BF6FF05E010807E8
:1043000001F087BA2DE9F04D0D4614464FF07F417C
:10431000B1EB440F9EBF4FF0FF312960BDE8F08D37
:104320004FF0004040EA0421C4F3C750783810F041
:104330001F024A4B4FEA601CC2F120067B44C4F3C3
:10434000C750A0F178004FEA601003EB800053F8EB
:104350002C3008BFD0E901C612D0D0F804C0934079
:104360002CFA06F73B4387680CFA02FC27FA06F89A
:10437000C06807FA02F2F0404CEA080C42EA000674
:10438000A3FB0132ACFB01C0A6FB016101EB0C06F3
:104390008E4234BF4FF0010C4FF0000CC118614445
:1043A000BCF1000F02D0814202D903E0814201D268
:1043B000012000E00020104400F120024FEA921892
:1043C0008006CA0C40EA42304F03C5F8008001F075
:1043D00047F88246384601F05BF86FF0120101F0B1
:1043E00018FA0746304601F053F86FF0250101F046
:1043F00010FA83463946504600F0ACFE594600F0AC
:10440000A9FE00F500666FF30B065146304601F039
:1044100059F9394601F056F9594601F049F9104960
:1044200001F04AF807460F49304601F045F8394691
:1044300000F090FE07460C49304601F03DF8394641
:1044400000F088FE14F0004F08BFBDE8F08DC8F101
:10445000805180F000402960BDE8F08D801500009B
:10446000DB0FC92F22AAFD290000C92F2DE9F8432F
:10447000044602464F486946B0EB420F09D94FF057
:10448000E640B0EB420F94BF00204FF0FF300090A9
:1044900030E0494B22F00040834271D94749204621
:1044A00001F00AF801F0D4F8804600F0BDFF00F0FA
:1044B000030000904249404600F0FEFF0546414996
:1044C000404600F0F9FF06463F49404600F0F4FF41
:1044D00007463E49404600F0EFFF214601F0E8F86C
:1044E000394601F0EFF8314601F0ECF8294601F0C9
:1044F000E9F804462546009C002C45DB294614F0CB
:10450000010F08461CD000F0D7FF0646304900F0E6
:10451000D3FF304901F0CCF8314600F0CDFF2E49F1
:1045200000F018FE314600F0C7FF294600F0C4FF36
:10453000294600F00FFE14F0020F1CD0BDE8F883EE
:1045400000F0BAFF0546254900F0B6FF244900F007
:1045500001FE294600F0B0FF224900F0FBFD29468C
:1045600000F0AAFF4FF07E5100F0F4FD14F0020FAE
:1045700008BFBDE8F88380F00040BDE8F883FFE79E
:104580001046FFF7BFFEB4E76800B0F17F4F3CBFB5
:104590004FF07E50BDE8F88307D14FF00100FCF7E3
:1045A00068F8BDE8F843FFF7A4BE2846BDE8F84325
:1045B000FFF79CBEB61F927E490E494683F9223F03
:1045C0001A61342C0020A23300A0FD390000C93F3D
:1045D000336D4C39DA82083CA0AA2ABEB93AB2BA85
:1045E000CA9F2A3DDDFFFFBE38B500BF4FF0E02077
:1045F0000069FDF711FC05464FF0E0204069441CBE
:104600004FF0E0208069201A0090FEF77DFE38B15F
:10461000FDF702FC05464FF0E0208069201A00906B
:104620004FF47A7100984843B0FBF4F005EB450174
:10463000C1EBC51100EBC10038BDFDF7FFFBFEF774
:104640009FFDFEF7BBFBFEF787FBFEF765FBFEF762
:10465000FDFBFEF717FCFFF731FB0446FFF744FBB9
:1046600007E0FFF72BFB0446FFF7F9F80A20FDF7F8
:104670001FFAF6E72DE9F843044602465248694618
:10468000B0EB420F09D94FF0E640B0EB420F94BFB8
:1046900000204FF0FF30009030E04C4B22F0004003
:1046A000834271D94A49204600F006FF00F0D0FF4E
:1046B000804600F0B9FE00F00300009045494046F6
:1046C00000F0FAFE05464449404600F0F5FE064675
:1046D0004249404600F0F0FE07464149404600F09E
:1046E000EBFE214600F0E4FF394600F0EBFF3146D7
:1046F00000F0E8FF294600F0E5FF04462546009C4F
:10470000002C45DB294614F0010F08461ED000F0AE
:10471000D3FE0546334900F0CFFE334900F01AFDC1
:10472000294600F0C9FE314900F014FD294600F089
:10473000C3FE4FF07E5100F00DFD14F0020F08BFD4
:10474000BDE8F88380F00040BDE8F88300F0B4FED7
:104750000646274900F0B0FE264900F0A9FF314681
:1047600000F0AAFE244900F0F5FC314600F0A4FE5A
:10477000294600F0A1FE294600F0ECFC14F0020FDF
:10478000E0D1BDE8F883FFE71046FFF7BBFDB4E7D3
:104790006800B0F17F4F09D22846FFF78CFD04284E
:1047A00008BFFFF7AAFD2846BDE8F88306D101201F
:1047B000FBF75FFFBDE8F843FFF79BBD2846BDE868
:1047C000F843FFF793BD0000B61F927E490E49469D
:1047D00083F9223F1A61342C0020A23300A0FD3956
:1047E0000000C93FB93AB2BACA9F2A3DDDFFFFBEF9
:1047F000336D4C39DA82083CA0AA2ABE21F000426F
:10480000A2F16052B2F5801F01F0004328BFD2F13F
:104810007F6C0BD95FEA001C43EAC20242EB507086
:1048200018BF704728BF20F001007047B2F5801F05
:10483000BCBF184670474FEA410C1CF5001F02D25E
:10484000084600F000BF70B500F00EFB00000089C4
:10485000FFF7F6BF4FF00040A0F580007047000062
:1048600010B591EA030F48BF83F0004300F1648361
:10487000841A71EB030C05D2121943EB0C03001BD5
:1048800061EB0C01DFF824E14FEA1154A4EB135C57
:104890001EEA430F18BF9EEA445F73D023EA0E035B
:1048A000DCF1200E21EA045143F4801332D322FAC2
:1048B0000CFE10EB0E0023FA0CFE41EB0E01CCF1C6
:1048C000200E03FA0EFE10EB0E0051F10001B1F5BF
:1048D000801FCCF1200E32D201EB045112FA0EF2FD
:1048E000BDE8104058BF7047401C38BF5FEA420225
:1048F00018BF7047002814BF20F0010041F10001EB
:104900004FEA410313F5001F38BF7047A1F1C041C2
:1049100000F0F8BA012A43EB0302ACF1200CDCF101
:104920001F0E32BF4FF0000E23FA0CF310EB030002
:1049300041EB0451B4EB115FD0D0A1EB045101F570
:10494000801149085FEA300001EB04510ED350F1A9
:10495000000038BF12FA0EFE08D1BDE81040C9E7CA
:10496000401C38BF5FEA4202CAD1C3E7BDE810402D
:104970004FEA410313F5001F38BF7047A1F1C04152
:1049800000F0C0BA9EEA445F08D011EA5E0FBDE8AD
:10499000104004BF01F0004100207047BDE8104006
:1049A00070B500F061FA00BF64FBBE3E0000E0FF9E
:1049B0002DE9C04130B4DFF8A0C23CEA111418BFA1
:1049C0003CEA131400F0EC8081EA03051CEA1114A0
:1049D00044EAD57418BF1CEA131500F0C780A4EB95
:1049E00005044FF0004545EAC12145EAC32341EAE9
:1049F000505143EA525304F17F74994204F5003454
:104A00004FEAC0204FEAC22208BF904200F09C80CB
:104A10004FEA13650FF24016765D4FEA134506FB29
:104A200005F7C7F1807706FB07F74FEAD737A7FBF3
:104A300003687642C8F58038A7FB06CE38BFA8F1D8
:104A4000010807FB08E64FF0000EA6FB028CE6FB10
:104A500003CEDCF1000CCEF1004E38BFAEF1010EFA
:104A6000A6FB0C584FF000074FF00005E6FB0E8741
:104A7000A1FB08C6A0FB07CE16EB0E0645F100050C
:104A8000E1FB076515F1E04E7EBFA4F580345FEAD7
:104A900046066D4116F1800745F100054FEA1727DC
:104AA0004FEA066647EA0567A6F1DE46B6F1805F83
:104AB0004FEA15251FD9384624F0010C05EBC471C7
:104AC000BCF1FE6F01EB0C1102D8F0BCBDE8008117
:104AD00024425CBF01F5801E9EEAC47F02D4F0BC74
:104AE000BDE80081244238D4F0BCA1F1C041BDE84A
:104AF000004100F007BA4FEAD22242EA43524FEA9D
:104B0000D323A7FB02864FEAD02040EA415007FB9F
:104B100003661EEA0E0F4FEAD12105FB026658BF5D
:104B2000A6EB0056B6EB00564FEA520E4EEAC37E95
:104B300018EB0E0E56EB530EBDD518EB02085E4176
:104B40007F1C55F10005B6E74FF480154FF00007C4
:104B50004FF000064FF00008ADE7F0BC4FF000004A
:104B600001F1C04101F00041BDE8008111EA0C1FD4
:104B70000CEA131500D00CE013EA0C1F00F025809E
:104B80004FF00000F0BC81EA030101F00041BDE8F4
:104B90000081F0BCBDE8004181EA030100F0B2B938
:104BA000F0BCBDE8004170B500F05EF9097EFC3E46
:104BB00000F007B881EA03014FF0000001F0004166
:104BC000704781EA030100F09DB9F0BCBDE80041E7
:104BD0004FF0000021497047FFFDFBF9F7F5F4F2B3
:104BE000F0EEEDEBE9E8E6E4E3E1E0DEDDDBDAD888
:104BF000D7D5D4D3D1D0CFCDCCCBCAC8C7C6C5C4E6
:104C0000C2C1C0BFBEBDBCBBBAB9B8B7B6B5B4B3FC
:104C1000B2B1B0AFAEADACABAAA9A8A8A7A6A5A4E7
:104C2000A3A3A2A1A09F9F9E9D9C9C9B9A999998AB
:104C30009797969595949393929191908F8F8E8E4E
:104C40008D8C8C8B8B8A89898888878786858584DB
:104C500084838382828181800000FF070000F87FC7
:104C60004FEA41034FEA5353A3F58063D3F11E0388
:104C7000C8BFD3F1210C0CDD4FF0004242EAC12243
:104C800042EA505232FA03FC8CEAE17CACEBE17070
:104C90007047102BC4BF0020704703F5787CBCF12F
:104CA000FF3F04D06FF0004282EA2100704770B5E8
:104CB00000F0DAF84992248000207047F2E710F003
:104CC000004248BF4042B0FA80F310FA03F10AD024
:104CD000C3F11D0303F580634FEA415002EB035219
:104CE00002EBD12170474FF000007047B0FA80F31B
:104CF00010FA03F10AD0C3F11D0303F580634FEAF4
:104D000041504FEA035202EBD12170474FF00000AF
:104D100070470000DFF848C170B51CEA111E1EBFC5
:104D20001CEA13159EEA0C0F95EA0C0F00F06F8039
:104D300081EA030423EA4C134EEAD47E21EA4C11A3
:104D400041F4801143F48013AE44A1FB024CA0FB5C
:104D50000365AEF17F7E361955EB0C05A1FB034CC4
:104D60004CF10003A0FB021C16EB0C06654153F14D
:104D70000003094218BF46F0010613F4007F0BD16F
:104D80004FEA03314FEA0530340341EA155140EA56
:104D900016506FF003020AE04FEAC3214FEAC52024
:104DA000F40241EA555140EA56506FF0020202EB1C
:104DB0002E4201EB025585EACE710AD05FEA440C1F
:104DC00018BF24F0004450F1000041F1000120EA36
:104DD000D47040F2FE7C624500D270BDA84214BF80
:104DE0004FF080444FF04044002E08BF0024BEF135
:104DF000806FA8BFA1F1C041BDE8704080F2828001
:104E00004FF0000001F1C04101F0004170479EEAFF
:104E10000C0F0CEA131518BF95EA0C0F06D04FF0D3
:104E2000000081EA030E0EF0004170BD00F01CF896
:104E30008900013E00F007B800F009B84FEA430CC2
:104E40005FEA5C5C08D081EA030100F05BB84FEADE
:104E5000410C5FEA5C5CF6D14FF0000001497047FD
:104E60000000FF070000F87F0EF1020E2EF0030E87
:104E70005EF8046B364205D4012A43EB030515F5B1
:104E8000001F12D8012841EB010C1CF5001F0CD8A3
:104E90000ED14FEAD17C15F5001F0CEB4C0C0CF138
:104EA000020C08BF4CEBD37C04E04FF0080C01E08F
:104EB0004FEAD37C0CEB4C0526FA05F606F0070604
:104EC000B6F1040C06D20EEB860CBDE870404CF037
:104ED000010C6047DFE80CF0090B02024FF00041C3
:104EE0004FF00000A1F5002170BD194610460128C1
:104EF00051EB010418BFD4F5001484BF002001F069
:104F0000004170BD0808A0F500114FEA310170475B
:104F100091EA030F10B581F000413FF5A9AC83F091
:104F2000004300F009B8000010B591EA030F48BF34
:104F300083F000433FF59CAC841A71EB030C07D25D
:104F400012198CF0004C43EB0C03001B61EB0C01BD
:104F5000DFF8A4E14FEA1154A4EB135C1EEA430FFF
:104F600018BF9EEA445F00F0B08023EA6E0352420D
:104F700021EA0451C3EB6E0338BF5B1EDCF1200E47
:104F800025D322FA0CFE10EB0E0043FA0CFE41EB87
:104F90000E01CCF1200E03FA0EFE10EB0E0051F1C3
:104FA0000001CCF1200E29D412FA0EF201EB0451CB
:104FB000BDE8104058BF7047401C1CBFB2F1004F05
:104FC000704700280CBF491C20F00100704712EB0D
:104FD000020E43EB030218BF4FF0010E4EEA4202ED
:104FE000ACF1200CDCF11E0E54D943FA0CFE10EB90
:104FF0000E0051F1FF31CCF11E0ED5D50EF1010E90
:1050000012FA0EFE404141EB010101EB445C5FEA04
:105010005C5C10D910EBDE7001EB045138BFBEF1BF
:10502000004FBDE8104018BF704700280CBF491C56
:1050300020F00100704730D24FEAD42C11F5001156
:1050400024F400641BD0B1FA81F20B3AA41AA41E16
:10505000D2F12003914030FA03F31943904001EB61
:10506000CC71002C01EB0451BDE81040A8BF704783
:1050700001F1C0414FF0000001F000417047B0FA6B
:1050800080F310FA03F100D110BDE41A173C480573
:10509000C90AE4E701EB045110BD491001EB0451CA
:1050A000BDE810404FEA300002E04FF000017047C9
:1050B0004A0008BF0042F8D0B2F5001F28BF704771
:1050C00001F000414FF0000070479EEA445F07D0B6
:1050D00011EA5E0FBDE8104004BF002100207047B8
:1050E000BDE8104070B5FFF7BFFE00BF40DFF63EE1
:1050F00083F00041104670470000E0FF43004FEA94
:10510000D30C4FEA3C0C43401FBF40070CF16051E9
:1051100013F0FE4F70471CF0006F03D100200CF01D
:10512000004170470CF0004343EA507010B540EA6C
:10513000CC0000F042FA00BF000000924FEA0001EC
:10514000FFF7E0BE4FF000414FF00000A1F5002155
:105150007047000090EA010F48BF81F0004100F164
:10516000B882421A3CBF801A89184FEAD0524FF0D9
:105170007F4C1CEA410FA2EBD15318BF9CEA026F8F
:1051800000F03B804FF0004C4CEA00204CEA01213B
:1051900021FA03FC10EB0C0C1ED202F1FF325FEA85
:1051A0001C2040EBC25038BF70471CF07F0F4FEA05
:1051B000400C18BFBCF17F4F38BF7047C3F12003CC
:1051C000994008BF20F00100BCF17F4F38BF704705
:1051D000A0F1C04000F037BA4FEA3C00000A40EBB3
:1051E000C25028BF1CF0FF0F4FEA400CE6D018BF9A
:1051F000BCF17F4F38BF7047EAE79CEA026F05D0E9
:1052000010EA5C0F08BF00F00040704710B500F0D6
:10521000D4F900BF64FBBE3E014800F0C8BA00BF2D
:105220000000C07F401058BFC0F14040491058BF37
:10523000C1F140418142EFF3008070474FF47F0C91
:105240001CEAD0121EBF1CEAD11392EA0C0F93EA9B
:105250000C0F00F0858090EA010F48BF42F4807285
:1052600040F4000C41F400002CF07F4120F07F401E
:1052700000B58142A2EB03020FF2081CACEB504ECA
:10528000C0F100009EF800E04FEA4E0E00FB0EFC5D
:1052900038BF49004FEA2C1C02F5FA020CFB0EF352
:1052A0004FEACE1E4FEA112C4FEAC1210EEB635E8E
:1052B00042EB22420EFB0CFC4FEA1C5300FB031195
:1052C0004FEA112C4FEA01310EFB0CFC4FEADC4C8B
:1052D00000FB0C11C14228BF09184CEB03335DF8E9
:1052E00004EB10EB410143EBC250B2F57C0F38BF29
:1052F000704729D512F0F00F1CBF00F1C04000F03C
:1053000000407047008182838485868788898B8CE2
:105310008D8E8F919293959697999A9C9D9FA0A21E
:10532000A3A5A7A8AAACAEB0B2B3B5B7B9BCBEC06E
:10533000C2C5C7C9CCCED1D4D7D9DCDFE2E6E9EC0F
:10534000F0F3F7FAFE0000004FEA400C0CF1807C0D
:10535000BCF17E4F28BF7047B0F1C04000F073B978
:1053600090EA010F0CEAD11348BF42F48072624503
:1053700038BF634507D213F47F0F16D080EA0100CF
:1053800000F00040704710B500F017F9097EFC3EB0
:1053900000F005B880EA010000F00040704780EAA4
:1053A000010000F0004000F04EB912F47F0F04BF7E
:1053B0000248704780EA010000F045B90000C07F54
:1053C00050EA010C00F113801CF5000F58BFBCF52A
:1053D000000F01D48842704707D710F5000F58BF5F
:1053E00011F5000F15D488427047894270471CF5AB
:1053F000000F04D5BCF5000FF7D5814270474FF080
:10540000807C1CEB400F38BF1CEB410F01D2814266
:10541000704710B500F0D1F8922449004FF00050C9
:105420004FF08051FFF7FEBE41000B0ED3F19E02FC
:1054300008D950F400034FEA032323FA02F048BFCF
:105440004042704710B500F0B8F800BF4992248080
:10545000002070476FF0004282EA20007047000091
:1054600010F0004148BF4042B0FA80F310FA03F256
:10547000C3F19D030BD051EAC35101EB1220530637
:1054800038BF704700F1010008BF20F001007047ED
:10549000B0FA80F310FA03F2C3F19D030AD0D905E4
:1054A00001EB1220530638BF704700F1010008BF1E
:1054B00020F00100704700004FF47F0C1CEAD0126E
:1054C0001EBF1CEAD11392EA0C0F93EA0C0F00F0F6
:1054D000478090EA010F48BF42F480724FF0004CC1
:1054E0004CEA00204CEA012102EB0302A0FB01136D
:1054F000A2F50002002918BF43F001035B0028BF9A
:105500004FEA330342EB22425FEA132C4CEBC250CA
:105510002EBFBCEB436FB2F57C0F70474FEA036CB4
:10552000BCF1004F08BF20F00100B2F57C0F38BF7E
:1055300070470BD582F0FF0212F5803FC8BF70475D
:1055400000F1C040D8BF00F00040704700F5000CEB
:105550005FEA4C0C48BF7047B0F1C04000F073B830
:1055600090EA010F0CEAD11348BF42F48072624501
:1055700038BF634504D280EA010000F00040704764
:1055800010B500F01AF800BF8900013E00F007B81E
:1055900000F009B85FEA410C5FEA1C6C08D080EAB1
:1055A000010000F050B85FEA400C5FEA1C6CF6D1D5
:1055B0004FF00040A0F5800070470EF1020E2EF073
:1055C000030E5EF8044B244204D44FEA4102B2F1C8
:1055D0007F4F11D84FEA4003B3F17F4F0CD80ED163
:1055E0004FEAD07CB2F17F4F0CEB4C0C0CF1020C6B
:1055F00008BF4CEBD17C04E04FF0080C01E04FEA0F
:10560000D17C0CEB4C0324FA03F404F00704B4F14E
:10561000040C06D20EEB840CBDE810404CF0010CDB
:105620006047DFE80CF0070802024FF00040A0F5E9
:10563000800010BD0846420018BFD2F1807288BFBA
:1056400000F0004010BDFF2141EAD050C005704776
:105650005FEA400C5FEA1C6CBCF17F0314D4D3F109
:10566000170240F31C804FF0010C0CFA02FCACF165
:1056700001030340B3EB5C0220EA030008BF10EA19
:105680000C0F88BF60447047B3F1FF3F28BF5FEA4B
:10569000002C00F0004088BF40F07E507047BCF105
:1056A000FF0FB8BF704710B5FFF787FF40DBB6BEEE
:1056B00080F0004090EA010F7FF553AD81F000418A
:1056C00000F007B890EA010F48BF81F000413FF5B4
:1056D00048AD421A04D882F00042A0EB0200114407
:1056E0004FEAD0524FF07F4C1CEA410FA2EBD1534E
:1056F00018BF9CEA026F4AD04FF0004C4CEA0020E1
:105700004CEA012121FA03FCB0EB0C0C0FD412F08F
:10571000FE0F36D05FEA4C001DD5001240EBC250A0
:1057200038BF70471CF03F0F18BF70470BE0A2F165
:1057300001025FEA1C2040EBC25038BF70471CF0EA
:105740007F0F18BF7047C3F12003994014BF401E5C
:1057500020F00100704780084FEA122308BF70470D
:10576000B0FA80FCA2EB0C02CCF1280C60FA0CF031
:1057700093EA122F04BF00EBC25070474FEAC37088
:105780007047130A5FEADC1008BF7047F6E79CEA2F
:10579000026F04D010EA5C0F08BF0020704710B5FC
:1057A000FFF70BFF40DFF63E81F0004070470CF042
:1057B0000F03092B08BF082000F051800A2B0BD0E3
:1057C000082B18BF704708BF1CF0400F0AD04FF0DD
:1057D00000004FF0000170471CF0400F18BF4FF061
:1057E000004070471CF0100F08D020F0704300F00C
:1057F0007F4242EAD3014FEA4370704700F06040B5
:1058000021F07F4242EA000201F07F4040EA7270DC
:1058100070474FF0FF0212EAD0521CBF92F0FF0314
:105820008B42C2BFD14200EBC1507047002A0AD060
:10583000002B0BD0002900F00040A4BF40F0FE4038
:1058400040F40000704700F00040704743024FF002
:105850000B0C18BF4CF0806C7FF4DEAC70471CF46E
:10586000801F11D01CF4E02F03D06FEACC31490027
:1058700070474FF04050EFF3008222F0704242EA4E
:10588000000282F3008870474FF00000704700006C
:1058900000000000000001020304060708090000E0
:1058A000000001020304022001064060000660605F
:1058B00000028360000784600007FF6000040000AE
:1058C000000000006E83F9A22915444ED15727FC31
:1058D000C0DD34F5999562DB4190433CAB6351FEEA
:1058E00000590008000000203000000028010008D6
:1058F0003059000830000020800A000044010008F0
:105900000000000010000000010000000024F4006E
:105910000000000000000000000000000000000087
:105920000000000000000000000000000000000077
:04000005080000ED02
:00000001FF
