:020000040800F2
:10000000280A0020A101000887200008011F00081D
:1000100085200008FD08000881220008000000007B
:100020000000000000000000000000005121000856
:10003000450900080000000089200008532100083D
:10004000BB010008BB010008BB010008BB010008A0
:10005000BB010008BB010008BB010008BB01000890
:10006000BB010008BB010008BB010008BB01000880
:1000700015090008210900082D09000839090008A0
:10008000BB010008BB010008BB010008ED2100080E
:10009000F9210008BB010008BB010008BB010008F2
:1000A000BB010008BB010008BB010008BB01000840
:1000B000BB010008BB010008BB010008BB01000830
:1000C000BB010008BB010008BB010008BB01000820
:1000D000BB010008C9210008BB010008E12100089C
:1000E000BB010008BB010008BB01000800F002F8DA
:1000F00000F046F80AA090E8000C82448344AAF17C
:100100000107DA4501D100F03BF8AFF2090EBAE879
:100110000F0013F0010F18BFFB1A43F0010318473B
:100120003828000058280000103A24BF78C878C149
:10013000FAD8520724BF30C830C144BF04680C60ED
:10014000704700000023002400250026103A28BF35
:1001500078C1FBD8520728BF30C148BF0B60704739
:10016000642900F01981732900F0E98200207047AA
:100170001FB59DE8030000F023FA1FBD10B510BDA8
:1001800000F03AFB1146FFF7F3FF02F0BFFB00F06F
:1001900058FB03B4FFF7F2FF03BC00F089FB00003B
:1001A0000948804709480047FEE7FEE7FEE7FEE70B
:1001B000FEE7FEE7FEE7FEE7FEE7FEE70448054947
:1001C000054A064B7047000057210008ED00000863
:1001D00028040020280A00202806002028060020E5
:1001E00070B5064600F0D0F9056806F10B0020F066
:1001F0000704B4429CBF002070BD2B466A68BAB1A8
:100200001068A04210D304F1080188423CBF506836
:10021000586007D35168101941601168091B0160CB
:1002200058601460101D70BD13465268002AE7D153
:100230002146284600F0B0F90028DED170BD70B527
:100240000446051F00F0A0F90068002C14BF4468A4
:1002500070BD002C18BFAC423CBF20466468F8D388
:1002600001680A18AA4218BF456003D12A680546EA
:100270001144016028684119A1421CBF6C6070BD27
:100280006168696021680844286070BDB2F120038C
:100290000AD5C2F1200320FA02F001FA03F321FA91
:1002A00002F140EA0300704721FA03F04FF0000129
:1002B000704700000FB41CB5074B06AA7B44694683
:1002C0000090059800F011FA0020694600F020FA2D
:1002D0001CBC5DF814FB0000510400002DE9F04146
:1002E0000E460446002020622046E168884730B36D
:1002F000252805D0D4E901219047206A401CF2E767
:10030000E168204600278847050018D0A5F1410084
:10031000192802D820354FF4006732462946204676
:100320002760FFF71DFF40B1012804D0F61D26F01D
:1003300007060836D8E7361DD6E72846DAE7206AEA
:10034000BDE8F08170B50C460546012A05D0287835
:10035000800600D5EA69002302E0012305E05B1C6A
:10036000934202D2E05C0028F9D1A869E618C01ACD
:10037000A861286A184428622846AFF3008004E088
:10038000D5E9012114F8010B9047B442F8D328466F
:10039000AFF3008070BD00002DE9F0410646002457
:1003A00010687529314616A510D0AFF300800028DB
:1003B00002DA404213A507E031688A0701D512A589
:1003C00002E0490704D511A5012401E0AFF3008044
:1003D00000210A2206F1240709E0B0FBF2FCB0FB81
:1003E000F2F302FB1C00303078541846491C0028F8
:1003F000F3D123462A463046BDE8F04100F016B955
:10040000000000002D0000002B0000002000000074
:10041000032A40F2308010F0030C00F0158011F830
:10042000013BBCF1020F624498BF11F801CB00F808
:10043000013B38BF11F8013BA2F1040298BF00F85C
:1004400001CB38BF00F8013B11F0030300F07B81C2
:10045000083AC0F0088051F8043B083A51F804CB40
:10046000A0E80810F5E7121D5CBF51F8043B40F806
:10047000043BAFF30080D20724BF11F8013B11F811
:1004800001CB48BF11F8012B24BF00F8013B00F855
:1004900001CB48BF00F8012B70474FF00002042940
:1004A000C0F0128010F0030C00F01B80CCF1040CA3
:1004B000BCF1020F18BF00F8012BA8BF20F8022BD7
:1004C000A1EB0C0100F00DB85FEAC17C24BF00F87D
:1004D000012B00F8012B48BF00F8012B70474FF0AB
:1004E000000200B5134694469646203922BFA0E884
:1004F0000C50A0E80C50B1F12001BFF4F7AF090790
:1005000028BFA0E80C5048BF0CC05DF804EB890080
:1005100028BF40F8042B08BF704748BF20F8022BC3
:1005200011F0804F18BF00F8012B704710B504463A
:1005300010F0030F08BF11F0030F40F015804FF0CB
:10054000013E121FC0F20E8051F8043BA3EB0E0CCB
:100550002CEA030C1CEACE1C08BF40F8043BF0D088
:10056000A1F1040102F10402521E08DB11F8013B63
:10057000002B00F8013BF7D11146FFF78EFF204614
:1005800010BD704770477047004870470802002050
:10059000704770477047704738B504460A460020D8
:1005A0006946AFF30080002808BF38BD02460099B5
:1005B000204600F0FFF8012038BD012000F014B9FA
:1005C000F8B5AFF30080054600200C46102000BFB0
:1005D0000646A819A0420DD9324669460020AFF35D
:1005E0000080070008BF00F0FFF80098A04218BF85
:1005F0000546C419FFF7C8FF05600746F01D20F047
:1006000007004619284600F00AF8B44208BFF8BDB2
:10061000A21B31463868BDE8F84000F0CBB8002195
:100620000160C0E901107047102070472DE9F047C4
:100630000D4699469246044600F124080168880652
:1006400004D5E06921F01001216000E00120A842FA
:1006500001DD471B00E00027A1697A1902EB0900C0
:10066000081AA0612078C00602D42046AFF30080AB
:10067000002608E0D4E901211AF806009047206A14
:10068000401C761C20624E45F4DB2078C0060AD55B
:100690002046AFF3008006E0D4E9012130209047E6
:1006A000206A401C2062381EA7F10107F4DC07E035
:1006B000D4E9012118F805009047206A401C206207
:1006C000281EA5F10105F3DC2046AFF30080207859
:1006D000000602D50220BDE8F0870120FBE70000FC
:1006E00001694A1C02610878704700B58FB0CDE9F6
:1006F00001310021059105497944CDE903101146E6
:100700006846FFF7EBFD0FB000BD0000E5FFFFFFFF
:100710000A6802F8010B0A60704710B5436913B10B
:10072000AFF3008001E0FFF70DFE012010BD12784D
:1007300000F124010A7000224A700122EDE71168DD
:100740004FF0FF32E9E710B5203AC0F00B80B1E876
:100750001850203AA0E81850B1E81850A0E81850F6
:10076000BFF4F5AF5FEA027C24BFB1E81850A0E8FF
:10077000185044BF18C918C0BDE810405FEA827C19
:1007800024BF51F8043B40F8043B08BF7047D20730
:1007900028BF31F8023B48BF11F8012B28BF20F8D1
:1007A000023B48BF00F8012B70470000004870472B
:1007B00000020020034640688C46002818BF88428B
:1007C0003CBF03464068F8D318681844884207D0F5
:1007D0000CF1030020F00700001D411A521A0146D7
:1007E000081D0A60FFF72BBD10B500F039F8BDE811
:1007F000104000F02FB870477546FFF7D7FFAE46A0
:1008000005006946534620F00700854618B020B51C
:10081000FFF7D4FCBDE820404FF000064FF0000782
:100820004FF000084FF0000B21F00701AC46ACE898
:10083000C009ACE8C009ACE8C009ACE8C0098D4605
:10084000704710B50446AFF300802046BDE8104065
:10085000FFF79FBC002801D000F02AB870470000C5
:1008600010B5012805D0002103A000F027F80120D1
:1008700010BD09A1F8E7000053494752544D454DBA
:100880003A204F7574206F662068656170206D6531
:100890006D6F7279000000003A2048656170206D2C
:1008A000656D6F727920636F727275707465640024
:1008B00001491820ABBEFEE72600020070B50546D0
:1008C0000C460A2000E06D1C00F011F835B12878C4
:1008D0000028F8D102E0641C00F009F814B1207877
:1008E0000028F8D1BDE870400A20AFF3008008B5B9
:1008F00069468DF800000320ABBE08BDFEE710B5C9
:1009000000231A4602E0845C521C23448A42FADB2C
:10091000D8B210BD014800F0A7BA0000980100202D
:10092000014800F0A1BA000054010020014800F085
:100930009BBA000010010020014800F095BA0000A9
:10094000CC0000207047000072B64FF48045064C82
:100950006E0001222946204600F0FEFC01223146AD
:10096000204600F0F9FCF4E7000C014070B50546A4
:1009700000F0F8FC0646114C09E0681C07D025B1D0
:1009800000F0F0FC801BA84201D9032070BDE06894
:10099000C007F2D1E068800601D52020E060E06861
:1009A000C00605D4E069C00702D1E068400703D55E
:1009B00001F0BAFE012070BD002070BD0020024091
:1009C0000A4600230146012000F07ABB70472DE95A
:1009D000F05F0546006800244669D0F804908768F7
:1009E000D0F80CB0D0F810A0D0F81880F10748D09B
:1009F000F90714D001218160B80703D5284600F01B
:100A0000BDF90CE0780702D54FF4006407E0380721
:100A100002D54FF4805402E0284600F0AEF9F80504
:100A200016D529684FF480708860B80503D528462C
:100A300000F0A6F90CE0780502D544F4005407E074
:100A4000380502D544F4804402E0284600F097F9C6
:100A5000F80316D529684FF480308860B80303D5B1
:100A6000284600F08FF90CE0780302D544F40044E6
:100A700007E0380302D544F4803402E0284600F051
:100A800080F9300707D55FEACB6004D529681020CC
:100A900044F40074C86070074FF0080707D55FEA98
:100AA0000B7004D52868C760284600F061F9B007CC
:100AB00006D52868C068800702D0284600F059F99A
:100AC000700607D55FEACA6004D52968102044F48F
:100AD00080640861B00607D55FEA0A7004D528680B
:100AE0000761284600F046F9F00606D52868006937
:100AF000800702D0284600F03EF9B00308D55FEA2F
:100B0000C96005D5296810204860284600F034F9EE
:100B1000F00307D55FEA097004D5286847602846C6
:100B200000F031F9300446D55FEA497040D5F00550
:100B300004D55FEAC87001D044F00104B00504D5C3
:100B40005FEA887001D544F00204700504D55FEABD
:100B5000487001D544F00404300529D518F0700F11
:100B600026D008F07000402815D006DC102809D0E7
:100B700020280AD0302816D10AE050280ED060284C
:100B800011D10EE044F008040DE044F010040AE036
:100B900044F0200407E044F0400404E044F0800402
:100BA00001E044F480742868816921F0700181615A
:100BB000296804204860002C05D0686A20436862D8
:100BC0002846FFF703FFBDE8F09F70B5040003D08F
:100BD00094F8200010B104E0012070BD204600F020
:100BE00081F82068016841F00101016000F0BAFB62
:100BF0000546052604E000F0B5FB401B0A2811D885
:100C000020684068C007F6D02068016821F0020122
:100C1000016000F0A7FB05460BE000F0A3FB401BC2
:100C20000A2806D9606A40F40030606284F82060C7
:100C3000D2E7206840688007EFD4207E0128206832
:100C400001683DD021F080010160607E01282068AC
:100C5000016838D021F040010160A07E01282068A1
:100C6000016833D021F020010160E07E0128206876
:100C700001682ED041F010010160207F012820681A
:100C8000016829D021F008010160607F01282068F7
:100C9000016824D021F004010160D4E90201084375
:100CA000D4E90412114308436168491E08432168CE
:100CB000C86100206062012084F82000002070BD1F
:100CC00041F08001C0E741F04001C5E741F020015B
:100CD000CAE721F01001CFE741F00801D4E741F065
:100CE0000401D9E710B586B000210091019102916D
:100CF000039100681B49884232D11B48C16941F009
:100D00000071C161C16901F000710491816941F014
:100D1000040181618069154C00F0040004904FF4D7
:100D2000006000906946204600F01EFAA014009072
:100D300002200190032003906946204600F014FA37
:100D400000221146132000F077FB132000F066FB11
:100D500000221146142000F06FFB142000F05EFB0F
:100D600006B010BD006400400010024000080140C1
:100D700070477047704770477047704770477047BB
:100D8000704770477047704710B590F821100022E7
:100D9000022905D00421816380F82020012010BDA4
:100DA00001680B6823F00E030B6001680B6823F0E9
:100DB00001030B6090F84030C46B012101FA03F38A
:100DC000636080F8211080F82020104610BD0000DC
:100DD00010B590F821100024022903D0042181636A
:100DE00001243DE001680A6822F00E020A600168F1
:100DF0000A6822F001020A601A4A0168914201D190
:100E0000012121E0174A1432914201D110211BE047
:100E1000144A2832914201D1891515E0114A3C3219
:100E2000914201D189140FE00E4A5032914202D111
:100E30004FF4803108E00B4A6432914202D14FF402
:100E4000801101E04FF08071064A083A516001219B
:100E500080F82110002180F82010416B01B18847F3
:100E6000204610BD080002402DE9F05FC16B0C6800
:100E700001680B68D0F840C0042202FA0CF2494D18
:100E8000DFF824A1494E4A4FDFF828B1DFF828E106
:100E900022422CD05A072AD50A68920603D40A683F
:100EA00022F004020A600168A94201D1042219E07B
:100EB000514501D1402215E0B14202D14FF4806288
:100EC00010E0B94202D14FF480420BE0594502D103
:100ED0004FF4802206E0714502D14FF4800201E018
:100EE0004FF080622F4908394A60C16A3BE04FF0F9
:100EF000020808FA0CF818EA040F4FF000094FF046
:100F0000010235D05FEA837832D50B689B0605D4A1
:100F10000B6823F00A030B6080F821200168A942C6
:100F200001D1022219E0514501D1202215E0B14240
:100F300002D14FF4007210E0B94202D14FF40052D6
:100F40000BE0594502D14FF4003206E0714502D161
:100F50004FF4001201E04FF00072124908394A6064
:100F600080F82090816A00291AD0BDE8F05F084718
:100F7000082505FA0CF5254212D01B0710D50B6881
:100F800023F00E030B6090F84010C36B02FA01F1DE
:100F90005960826380F8212080F82090016BE2E79D
:100FA000BDE8F09F080002401C00024030000240F3
:100FB00044000240580002406C00024030B528B3A3
:100FC00008C8134914221944B1FBF2F18900C16326
:100FD00010498163022141771A6843F6F0718A4310
:100FE000D0E900142143D0E902452C432143046990
:100FF000214344692143846921431143196000213D
:101000004163012242770177084630BD012030BD9F
:10101000F8FFFDBF0000024070B5044690F82000C4
:10102000002501280CD0012084F8200094F82160CC
:101030000020012E06D084F820000225284670BD2D
:10104000022070BD022684F82160A0632068066833
:1010500026F001060660204601F0E0F9E06A00286B
:101060002068016802D041F00E0106E021F0040181
:1010700001602068016841F00A0101602068016890
:1010800041F001010160D9E770B5044600F06AF94A
:101090000546601C02D004480078044400F062F960
:1010A000401BA042FAD370BD000000200348016934
:1010B00041F08001016100207047000000200240E3
:1010C0002DE9F05F07461C4888460024017E15463E
:1010D0001E46012909D00121814601764CF2503A81
:1010E0005046FFF743FC18B122E00220BDE8F09F14
:1010F000012F02D0022F00D00427D346DFF83CA0F6
:10110000220128463146FFF7C1F881B208EB4400BE
:1011100001F038FB5846FFF729FCDAF8102022F0DE
:101120000102CAF8102018B9641CE4B2BC42E7D32B
:10113000002289F81820D9E7E001002000200240B1
:10114000064900200A69120607D5054A4A60054A81
:101150004A600969090600D5012070470020024055
:1011600023016745AB89EFCD2DE9F84FDFF8B89142
:10117000002409F1040A0AF1040B23460F270BF19E
:10118000040EC9E00125A5402A40AA427DD1674E40
:10119000D1F804C0ACEB0608B44532D014DCBCF185
:1011A000030F3AD009DCBCF1000F2AD0BCF1010FCB
:1011B0001CD0BCF1020F31D11DE0BCF1110F17D0D2
:1011C000BCF1120F2AD119E0B8F5881F19D006DC3E
:1011D000B8F5803F15D0B8F5801F1FD111E0B8F5E4
:1011E000001F0ED0B8F5041F18D10AE0CB6815E037
:1011F000CB681B1D12E0CB6808330FE0CB680C33C3
:101200000CE08B682BB1012B4FF0080303D0456134
:1012100004E0042302E0056100E00023FF2A01D876
:10122000064601E000F104064FEA840501D9A5F164
:101230002005D6F8008007FA05FC28EA0C0803FA16
:1012400005F548EA0508C6F800804D68ED0062D54E
:10125000374DAE6946F00106AE61AD6924F0030674
:1012600005F001050095334D06EB050CDCF8085040
:10127000A607360F07FA06F825EA0805DFF8B88052
:10128000404503D14FF0000817E044E0DFF8AC80A0
:10129000404502D14FF001080FE0DFF8A48040453F
:1012A00002D14FF0020808E0DFF89880404502D1F3
:1012B0004FF0030801E04FF0040808FA06F848EA86
:1012C0000508CCF808804D68D9F80060ED034D465C
:1012D00001D5164300E096432E604D68DAF80060B1
:1012E000AD03554601D5164300E096432E604D6888
:1012F000DBF80060ED025D4601D5164300E0964341
:101300002E604D68DEF80060AD02754601D51643CB
:1013100000E096432E60641C0D682A46E5407FF489
:1013200031AFBDE8F88F000000040140000011104B
:10133000001002400000014000080140000C014084
:101340000010014000140140C26821EA02030A4073
:1013500043EA0241016170470AB101617047090423
:10136000FBE7000001488068704700000000002093
:1013700002488168027811448160704700000020B3
:10138000074810B5016841F010010160032000F02A
:1013900073F80F2000F006F800F024F8002010BDCC
:1013A0000020024070B50D4D04464FF47A71287844
:1013B000B1FBF0F00A490968B1FBF0F000F0EAFA7D
:1013C00048B9102C07D200222146501E00F034F8F4
:1013D00000206C6070BD012070BD00000000002086
:1013E0000C0000200B4808B5816941F001018161C2
:1013F000816901F001010091C16941F08051C16131
:10140000C06900F0805000900348416821F0E0611D
:10141000416008BD0010024000000140002809DBC7
:1014200000F01F02012191404009800000F1E020FE
:10143000C0F8001170470000F0B40E4B1B680C465A
:10144000C3F30223C3F10705042D00D90425191D98
:10145000072901D2002300E0DB1E012606FA05F170
:10146000491E214099409E40761E16403143F0BCF3
:1014700001F096B90CED00E0064900F0070208689B
:101480004FF6FF03184040EA0220034A1043086069
:10149000704700000CED00E00000FA052DE9F04770
:1014A0000F46050061D0434E306800F00700B84297
:1014B00009D2306820F0070038433060306800F00F
:1014C0000700B84251D128683B4C810712D540072C
:1014D00003D5606840F4E06060602878000703D5B9
:1014E000606840F4605060606068A96820F0F000B7
:1014F000084360602878C00728D06868012810D0A9
:101500002168022810D0890700292EDA616821F0AD
:10151000030101436160FFF725FF804641F28839EE
:101520000DE021688903EFE78901EDE7FFF71AFF76
:10153000A0EB0801494502D90320BDE8F0876068A7
:10154000696800F00C00B0EB810FEFD1306800F05B
:101550000700B8420BD9306820F0070038433060EC
:10156000306800F00700B84201D00120E5E7287894
:10157000400705D56068E96820F4E06008436060D2
:101580002878000706D56068296920F4605040EA91
:10159000C100606000F038F86168084AC1F30311C7
:1015A000515CC8400649086006480068FFF7FAFE2B
:1015B0000020C2E70020024000100240402900083D
:1015C0000C00002004000020044805490068496818
:1015D000044AC1F30221515CC84070470C0000204E
:1015E0000010024050290008044805490068496875
:1015F000044AC1F3C221515CC84070470C0000206E
:10160000001002405029000812A185B00FC98DE8D2
:101610000F0014A0144A006804905168134811F098
:101620000C0312D0042B10D0082B0ED1C1F383432E
:10163000C9031DF803000AD5516804AAC1F340414B
:10164000515C0A4A5043B0FBF1F005B070470849BD
:101650004843FAE702030405060708090A0B0C0DC4
:101660000E0F1010010200000010024000127A005C
:1016700000093D002DE9F84F040070D02078C04DDE
:10168000C00749D06868C0F38100012807D06868A6
:10169000C0F38100022809D16868C00306D5286814
:1016A000800339D560680028E7D035E06068B0F580
:1016B000803F0BD010B1B0F5A02F11D0286820F4D6
:1016C00080302860286820F4802002E0286840F4F8
:1016D00080302860606890B1FFF744FE06460AE05B
:1016E000286840F480202860F0E700BFFFF73AFE4A
:1016F000801B642873D828688003F7D50CE0FFF7B7
:1017000031FE064605E000BFFFF72CFE801B642873
:10171000F0D828688003F7D420789A4E80074FF0DD
:1017200001094FF0000839D5686810F00C0F07D098
:101730006868C0F38100022809D16868C00306D434
:101740002868800714D52069012808D110E0206995
:10175000B0B1C6F80090FFF705FE074605E00AE1C4
:10176000FFF700FEC01B0228C4D828688007F7D501
:101770002868616920F0F80040EAC10028600DE0A7
:10178000C6F80080FFF7EEFD074604E0FFF7EAFD2C
:10179000C01B022823D828688007F7D420780007C8
:1017A0002CD57948A169D9B1C0F80090FFF7DAFDCE
:1017B000074604E0FFF7D6FDC01B02280FD8686A71
:1017C0008007F7D571484FF4FA510068B0FBF1F08B
:1017D000009000BF0098411E0091FAD20EE080E018
:1017E000C0F80080FFF7BEFD074604E0FFF7BAFD32
:1017F000C01B022875D8686A8007F7D42078400794
:1018000060D5E8690027C00008D4E86940F080503E
:10181000E861E869012700F0805000905C480168A9
:10182000C90513D40168834641F480710160FFF754
:1018300099FD824606E000BFFFF794FDA0EB0A0089
:1018400064284ED8DBF80000C005F5D5E068012813
:101850000AD008B1052813D0286A20F001002862B8
:10186000286A20F0040002E0286A40F001002862A3
:10187000E06841F2883B98B1FFF774FD82460BE0C7
:10188000286A40F004002862EEE700BFFFF76AFD17
:10189000A0EB0A0159455AD8286A8007F6D50CE012
:1018A000FFF760FD824605E0FFF75CFDA0EB0A0153
:1018B00059454CD8286A8007F6D41FB1E86920F052
:1018C0008050E861E06988B36968C1F38101022949
:1018D00044D00228C6F8608004D0FFF743FD0446D8
:1018E00038E034E0FFF73EFD074604E0FFF73AFD3D
:1018F000C01B02282BD828688001F7D4206AB0F5D5
:10190000803F05D16868A16820F400300843686012
:10191000D4E908010843696821F474110843686038
:10192000C6F86090FFF71EFD044606E025E000BF04
:10193000FFF718FD001B022809D828688001F7D599
:101940001BE000BFFFF70EFD001B022802D9032099
:10195000BDE8F88F28688001F4D40EE00128F7D0A4
:101960006868226A00F48031914204D1616A00F40F
:101970007010884201D00120EAE70020E8E700006B
:101980000010024000004242800442420C0000204D
:101990000070004010B5401EB0F1807F01D30120DF
:1019A00010BD4FF0E02460610F21601700F0F8FED9
:1019B0000020A06107202061002010BD704710B5F5
:1019C00004460068416994F83D20C1F3C011212A02
:1019D0000BD151B1416921F080014161606B08B1C7
:1019E000FFF7D2F9204600F02FFE2068416994F8F5
:1019F0003E20C1F38011222A0BD151B1416921F05F
:101A000040014161A06B08B1FFF7BEF9204600F02C
:101A100003FE002010BD7047F8B502680446106848
:101A2000D168536910F00F0F4FF0000553D003F049
:101A3000010601F4907737435FD0C20705D0CA058D
:101A400003D5226C42F001022264420705D5DA0771
:101A500003D0226C42F002022264820705D5DA0725
:101A600003D0226C42F004022264020707D501F081
:101A70002002324303D0226C42F008022264226C1E
:101A8000002A34D0800604D5880602D5204600F00E
:101A90005BFD20684069216CC0F38010090700D409
:101AA00030B3204600F0B8FD2068416949061BD5D7
:101AB000416921F040014161A06BA8B158494163DF
:101AC000A06BFFF785F9002811D0A06B416B01B026
:101AD000BDE8F040084783060FD58B060DD520469C
:101AE000BDE8F84000F030BD2046FFF794FFF8BD98
:101AF0002046FFF790FF2564F8BD266B2023012EBA
:101B000052D1C60650D5CE064ED51068506800900A
:101B1000506940062AD5A16B086840680004000C93
:101B2000EAD0A68D8642E7D9E0858869202818D0BA
:101B3000D06820F48070D0602068416921F00101F4
:101B400041612068416921F04001416184F83E30E3
:101B500025632068C16821F01001C160A06BFFF708
:101B600013F9A08DE18D401A81B219E0A08DE18DAD
:101B7000401A81B2E08D0028BED00029BCD0D068C8
:101B800020F49070D0602068426922F00102426126
:101B900084F83E3025632068C26822F01002C260DB
:101BA0002046FFF70BFFF8BD05062BD50D0629D5FE
:101BB00094F83D002128F6D1A068B0F5805F01D1EE
:101BC0002069B0B1206A411C216221680078486018
:101BD000E08C401E0004000CE084E4D12068C16861
:101BE00021F08001C1602068C16841F04001C160FE
:101BF000F8BD206A0088C0F308005060206A801C8D
:101C00002062E5E74006F3D54806F1D5D1682046C5
:101C100021F04001D16084F83D3000F070F9F8BD4A
:101C2000B526000870B5040004D094F83D000025E6
:101C300010B106E0012070BD84F83C50204600F051
:101C400023F8242084F83D002068C16821F4005165
:101C5000C160204600F01CFC2068016921F490411D
:101C600001612068416921F02A0141612068C16851
:101C700041F40051C1602564202084F83D0084F8BF
:101C80003E00002070BD00002DE9F04786B0002521
:101C90000095019502950395044603685948DFF8BD
:101CA00060C102210322071580264FF020084FF063
:101CB000100963454DD1836943F48043836183698F
:101CC00003F480430493836943F0040383618069D0
:101CD000DFF834A100F0040004900802CDE900010F
:101CE000039269465046FFF73FFACDE90075694611
:101CF00050460295FFF738FA454F4448C7E90005BA
:101D0000C7E902563D61C7E905583846FD61FFF74E
:101D100055F908B1FEF718FEA7637C623C4F3B48BB
:101D200044371438C7E902563D617D61BD61FD61EC
:101D3000C7E900093846FFF741F908B1FEF704FE8C
:101D400067630022114625207C62FFF775FB252082
:101D500051E0DFF8C0C063454FD1C36943F480232D
:101D6000C361C36903F480230493836943F00803C8
:101D700083618069CDE9007100F00800CDE903209E
:101D8000254F69463846FFF7EFF9F814CDE900050D
:101D9000694638460295FFF7E7F91D4F1B4888371B
:101DA0002838C7E90005C7E902563D61C7E905586B
:101DB0003846FD61FFF702F908B1FEF7C5FDA763DC
:101DC0007C62134F1148CC373C38C7E902563D615D
:101DD0007D61BD61FD61C7E900093846FFF7EEF896
:101DE00008B1FEF7B1FD67630022114627207C622F
:101DF000FFF722FB2720FFF711FB06B0BDE8F087B5
:101E00000038014000100240000801405800024024
:101E1000CC00002000480040000C014090F83E300B
:101E2000202B0ED159B152B190F83C30012B08D083
:101E3000012380F83C300023036300F08DB90120BA
:101E40007047022070477047704700002DE9F84343
:101E5000044690F83D001F4616460D4620284CD1FA
:101E6000C5B1BEB194F83C00012846D0012084F8E9
:101E70003C004FF00008C4F84080212084F83D0069
:101E8000FFF770FAA6848146E684A068B0F5805F0B
:101E900003D004E00120BDE8F883206928B12E4674
:101EA0005FF0000584F83C800EE00026FAE7802110
:101EB000204600F007FCA0B9AEB116F8010B21686E
:101EC0004860E08C401EE084E08C4B464FF00002FE
:101ED00000970028EBD14FF04001204600F0F2FBC4
:101EE00030B10320D7E735F8020BC0F30800E6E76E
:101EF000202084F83D000020CDE70220CBE770478A
:101F0000FEE700000F4810B50D4901600C2141604B
:101F100000214FF400328160C0E90312D200426117
:101F2000017641768176C17601774177FEF74DFEE5
:101F3000002803D0BDE81040FEF706BD10BD00002C
:101F4000006400401C000020154808B5416941F0BC
:101F5000010141614069002200F00100009011463A
:101F60000C20FFF769FA0C20FFF758FA00221146FF
:101F70000D20FFF761FA0D20FFF750FA00221146FD
:101F80000E20FFF759FA0E20FFF748FA00221146FB
:101F90000F20FFF751FABDE808400F20FFF73EBAC7
:101FA0000010024070B586B00024184800940194D7
:101FB00002940394816941F020018161816901F0FB
:101FC00020010491816941F008018161816901F07A
:101FD00008010491816941F00401816180690C4E1E
:101FE00000F004004FF4404504900022294630469A
:101FF000FFF7B2F901200095CDE901040320039019
:1020000069463046FFF7B0F806B070BD00100240D8
:10201000000C01400C4810B50A4901604FF4E13151
:102020004160002181600C22C160C0E9041281611D
:10203000C161FFF7F7FD002803D0BDE81040FEF7AF
:1020400083BC10BD00380140440000200C4810B58E
:102050000A4901604FF4E1314160002181600C22A6
:10206000C160C0E904128161C161FFF7DBFD002896
:1020700003D0BDE81040FEF767BC10BD004800402B
:1020800088000020FEE7FEE77047000070B50024DE
:1020900020B102281CD005284CD133E02425284645
:1020A000FEF79EF8044600F037F9008820802020D3
:1020B000A07000F031F900F581712022E01CFEF7DC
:1020C000A7F923212046FEF71AFC84F8230031E00B
:1020D00044252846FEF784F8044600F01DF90088E0
:1020E00020804020A07000F017F900F59171402287
:1020F000E01CFEF78DF943212046FEF700FC84F832
:10210000430017E018252846FEF76AF8044600F059
:1021100003F9008820801420A07000F0FDF800F57D
:10212000B4711422E01CFEF773F917212046FEF764
:10213000E6FBE0750A232A4621460448FFF786FE9F
:102140002046BDE87040FEF77AB800004400002049
:102150007047FFF70DB9704738B581628285002559
:10216000134604460564222084F83E00A26B1348FF
:102170009062A26B1248D062A26B12481063A06BEF
:102180000A4645632168A06B091DFEF745FF2068DC
:1021900001684168009184F83C50C16841F4807145
:1021A000C1602068416941F00101416120684169D5
:1021B00041F040014161002038BD00005B2600086D
:1021C000FF2500084724000810B50448FFF724FC49
:1021D000BDE81040014800F03BB80000440000207A
:1021E0000148FFF719BC0000880000200148FEF7F5
:1021F000EEBB00001C0000200148FEF7E8BB000019
:102200001C00002010B500680E49884219D10E4804
:10221000FFF7D5FB00F080F80C4909684968C1F167
:10222000FF01C0F8C01100F077F80121C0F8C41117
:1022300000F072F80146BDE81040FF220248FFF7A7
:10224000EDBD10BD0038014044000020CC0000204E
:10225000094A016882B091420BD1084909680A68AD
:10226000D243D20605D40A684968009102B0FFF74C
:10227000C9BF02B070470000003801404400002090
:10228000FEE730B58FB028216846FEF728F9142103
:102290000AA8FEF724F901210804CDE90010002462
:1022A000029402250491CDE907504FF4E010099003
:1022B0006846FFF7DFF960B90F20CDE90A0568022B
:1022C000CDE90C4002210AA80E94FFF7E7F8002898
:1022D00001D0FEF739FB0FB030BD7047F8B50546A9
:1022E000FEF72EFF0024264605EB4400ADF8006003
:1022F000B0F82201ADF800006000BDF80010FEF754
:102300005FFB0A2000F0DCFA641C202CECD3BDE853
:10231000F840FEF7CBBE0000084810B50078C007B3
:1023200009D1064800F0C3FA28B1054800F00AF8C0
:102330000248AFF30080024810BD000010000020EA
:102340006002002038B50446FF21FEF7C8F840219E
:1023500004F59170FEF7A1F80025C4F86251A4F8C5
:102360006651142104F5B470FEF7B9F8202104F584
:10237000BE70FEF7B4F8242104F5CE70FEF7AFF876
:102380009620A4F822014FF4DC70A4F8240142F254
:102390001070A4F8260184F82851A4F82A51A4F852
:1023A0002C51A4F82E51A4F830510A20A4F832017F
:1023B000A4F83451A4F83651A4F8385184F83A51AD
:1023C0002820A4F83C01012084F83E010F2084F865
:1023D0003F0184F84001062208A104F58170FEF750
:1023E000A5F894F84001009094F83F3105A208A1A7
:1023F00004F58970FDF75EFF204638BD76312E3139
:102400002E310000323032323033303100000000E3
:1024100025732D6D256465256400000030B590F8A6
:1024200040500124AC40C56B6C6004686360436835
:10243000102B036803D099600068C26030BD9A60B9
:102440000068C16030BD70B5446A2068406994F886
:102450003D10C0F3C0100025212904D118B1E58436
:10246000204600F0F1F82068406994F83E10C0F36F
:102470008010222904D118B1E585204600F0CCF85F
:10248000206C40F0100020642046FFF7C4FA70BDB5
:1024900070B5044600680169E26821F440511143B7
:1024A00001612169A0680843616908432168CA681D
:1024B00041F20C639A430243CA6020684169A269F1
:1024C00021F44071114341611E492068884202D1C4
:1024D000FFF78AF801E0FFF777F800EBC00101EBA6
:1024E0000012606864218000B2FBF0F3B3FBF1F3EB
:1024F0006FF018067343B2FBF0F5B2FBF0F605EB94
:102500008305322303EB0515B5FBF1F5B6FBF1F6B8
:1025100005F0F00505EB0615B2FBF0F6B2FBF0F0A6
:10252000B0FBF1F06FF01802504306EB800003EBB4
:102530000010B0FBF1F0216800F00F002844886023
:1025400070BD00000038014008B590F83E10222907
:1025500001D0022008BD82684FF480539A4201D115
:10256000016921B1816A9A421BD04AB10AE002682E
:10257000816A5268C2F308020A80816A891C08E0F5
:10258000026972B10268526802F07F020A70816AC1
:10259000491C8162C18D491E0904090CC18503D003
:1025A00019E002685268F1E70168CA6822F0200267
:1025B000CA600168CA6822F48072CA6001684A6908
:1025C00022F001024A61202180F83E10016B0129AE
:1025D00003D0FFF738FC002008BD0021016301682B
:1025E000CA6822F01002CA6001680A68D20602D5E1
:1025F0000A6849680091818DFFF7E0F9EBE710B5B3
:10260000406A016B012902D0FFF71EFC10BD818DCD
:102610004908FFF7D3F910BD0168CA6822F4907227
:10262000CA6001684A6922F001024A61016B01290E
:1026300004D10168CA6822F01002CA60202180F823
:102640003E100021016370470168CA6822F0C00291
:10265000CA60202180F83D10704710B50146406ADD
:102660000968096889061BD40021C1850168CA6808
:1026700022F48072CA6001684A6922F001024A614C
:1026800001684A6922F040024A61202180F83E1028
:10269000016B012904D10168CA6822F01002CA60E6
:1026A000016B012902D0FFF7CEFB10BD818DFFF732
:1026B00085F910BD10B5406A0021C185C184FFF7BE
:1026C000AAF910BD2DE9F041984617460E4604467A
:1026D000069D1DE0681C1BD02DB1FEF743FEA0EB4C
:1026E0000800A84214D92068C16821F4D071C160E3
:1026F0002068416921F001014161202084F83D00FA
:1027000084F83E00002084F83C000320BDE8F081FE
:102710002068006836EA000004D00020B842D9D012
:102720000020F3E70120F9E714480022C168CB0636
:10273000134904D5CA6942F00202CA611022C36873
:102740005B0705D5CB6943F00103CB6142F004027E
:10275000C369DB0707D0CB6943F00403CB61C169D0
:1027600021F00101C161A2F58071013901D0C2607F
:102770007047C16921F00101C1617047002002402A
:10278000E0010020044B0022DA61044A136943F09F
:102790000103136101807047E00100200020024026
:1027A0000907090E002804DB00F1E02080F800147E
:1027B000704700F00F0000F1E02080F8141D704712
:1027C00010B500F009F8BDE810404FF48041014811
:1027D000FEF7BABD000C014010B5FFF79DFDD0F823
:1027E000C40101282ED1FFF797FD00785A2829D17E
:1027F000FFF792FD4078062812D2DFE800F00305CB
:102800000A111124002009E0FFF786FDFFF766FD9D
:1028100006E0FFF781FDFFF760FD0220FFF736FCC1
:10282000FFF77AFDD0F8C041FFF776FD2146FDF7AE
:1028300056FEFFF771FD0024C0F8C441FFF76CFDA0
:10284000C0F8C04110BD0520E8E70000084810B5F9
:102850000078C00709D1064800F029F828B10548DA
:1028600000F024F80248AFF30080024810BD0000D9
:1028700014000020180000200A4810B50068C16844
:1028800041F01001C160FFF747FD0146FF220548F6
:10289000FFF7C4FA04480068C16841F01001C16044
:1028A00010BD00004400002088000020704701682F
:1028B00009B10020704701210160084670470000FF
:1028C0002DE9F0414FF0E0240546A769FEF74AFDE7
:1028D000064605EBC500C500BD420BD9FEF742FD1B
:1028E000B042FBD00849781B0844A1698142FCD85A
:1028F000BDE8F0817D1BA069A842F9D9FEF732FD41
:10290000B042F8D0F4E7000040190100FEF738FDAE
:10291000FFF7B7FCFFF746FBFFF716FBFFF7F2FAEE
:10292000FFF778FBFFF792FBFFF790FFFFF7A4FF9D
:10293000FFF78CFFFFF744FF0A20FEF7A5FBF7E740
:10294000000000000000000001020304060708095F
:1029500000000000010203047829000800000020A4
:102960001C00000028010008942900081C00002019
:102970000C0A0000440100080100000010000000E3
:10298000000000000024F40000000000000000002F
:042990000000000043
:04000005080000ED02
:00000001FF
