:020000040800F2
:10000000880A0020A1010008CD2A00081F29000845
:10001000C92A0008D5080008892D00080000000042
:10002000000000000000000000000000112C00088B
:100030006D0C000800000000D12A0008132C0008F5
:10004000BB010008BB010008BB010008BB010008A0
:10005000BB010008BB010008BB010008BB01000890
:10006000BB010008BB010008BB010008BB01000880
:100070002D0C00083D0C00084D0C00085D0C00081C
:10008000BB010008BB010008BB010008D92C000817
:10009000E92C0008BB010008BB010008BB010008F7
:1000A000BB010008BB010008BB010008BB01000840
:1000B000BB010008BB010008BB010008BB01000830
:1000C000BB010008BB010008BB010008BB01000820
:1000D000BB010008B52C0008BB010008C92C0008B2
:1000E000BB010008BB010008BB01000800F002F8DA
:1000F00000F046F80AA090E8000C82448344AAF17C
:100100000107DA4501D100F03BF8AFF2090EBAE879
:100110000F0013F0010F18BFFB1A43F0010318473B
:100120001C4200003C420000103A24BF78C878C14D
:10013000FAD8520724BF30C830C144BF04680C60ED
:10014000704700000023002400250026103A28BF35
:1001500078C1FBD8520728BF30C148BF0B60704739
:10016000642900F00581732900F0D58200207047D2
:100170001FB59DE8030000F00FFA1FBD10B510BDBC
:1001800000F026FB1146FFF7F3FF03F05FFC00F0E1
:1001900044FB03B4FFF7F2FF03BC00F075FB000063
:1001A0000948804709480047FEE7FEE7FEE7FEE70B
:1001B000FEE7FEE7FEE7FEE7FEE7FEE70448054947
:1001C000054A064B704700001B2C0008ED00000894
:1001D00088040020880A0020880600208806002065
:1001E00070B5064600F0BCF9056806F10B0020F07A
:1001F0000704B4429CBF002070BD2B466A68BAB1A8
:100200001068A04210D304F1080188423CBF506836
:10021000586007D35168101941601168091B0160CB
:1002200058601460101D70BD13465268002AE7D153
:100230002146284600F09CF90028DED170BD70B53B
:100240000446051F00F08CF90068002C14BF4468B8
:1002500070BD002C18BFAC423CBF20466468F8D388
:1002600001680A18AA4218BF456003D12A680546EA
:100270001144016028684119A1421CBF6C6070BD27
:100280006168696021680844286070BD0FB41CB5BE
:10029000074B06AA7B4469460090059800F011FAC6
:1002A0000020694600F020FA1CBC5DF814FB000039
:1002B000510400002DE9F0410E4604460020206262
:1002C0002046E168884730B3252805D0D4E90121CC
:1002D0009047206A401CF2E7E168204600278847E3
:1002E000050018D0A5F14100192802D820354FF497
:1002F00000673246294620462760FFF731FF40B1AC
:10030000012804D0F61D26F007060836D8E7361D6A
:10031000D6E72846DAE7206ABDE8F08170B50C46DA
:100320000546012A05D02878800600D5EA69002311
:1003300002E0012305E05B1C934202D2E05C00284E
:10034000F9D1A869E618C01AA861286A1844286279
:100350002846AFF3008004E0D5E9012114F8010B31
:100360009047B442F8D32846AFF3008070BD000038
:100370002DE9F0410646002410687529314616A57E
:1003800010D0AFF30080002802DA404213A507E046
:1003900031688A0701D512A502E0490704D511A5E5
:1003A000012401E0AFF3008000210A2206F12407B6
:1003B00009E0B0FBF2FCB0FBF2F302FB1C003030B2
:1003C00078541846491C0028F3D123462A46304663
:1003D000BDE8F04100F016B9000000002D0000005B
:1003E0002B00000020000000032A40F2308010F0B3
:1003F000030C00F0158011F8013BBCF1020F6244C0
:1004000098BF11F801CB00F8013B38BF11F8013B50
:10041000A2F1040298BF00F801CB38BF00F8013BFD
:1004200011F0030300F07B81083AC0F0088051F816
:10043000043B083A51F804CBA0E80810F5E7121D78
:100440005CBF51F8043B40F8043BAFF30080D20797
:1004500024BF11F8013B11F801CB48BF11F8012B63
:1004600024BF00F8013B00F801CB48BF00F8012B86
:1004700070474FF000020429C0F0128010F0030C06
:1004800000F01B80CCF1040CBCF1020F18BF00F887
:10049000012BA8BF20F8022BA1EB0C0100F00DB836
:1004A0005FEAC17C24BF00F8012B00F8012B48BF94
:1004B00000F8012B70474FF0000200B51346944638
:1004C0009646203922BFA0E80C50A0E80C50B1F1AC
:1004D0002001BFF4F7AF090728BFA0E80C5048BFC0
:1004E0000CC05DF804EB890028BF40F8042B08BF5E
:1004F000704748BF20F8022B11F0804F18BF00F85A
:10050000012B704710B5044610F0030F08BF11F01F
:10051000030F40F015804FF0013E121FC0F20E8015
:1005200051F8043BA3EB0E0C2CEA030C1CEACE1C86
:1005300008BF40F8043BF0D0A1F1040102F104022D
:10054000521E08DB11F8013B002B00F8013BF7D1EC
:100550001146FFF78EFF204610BD70477047704769
:1005600000487047E80100207047704770477047A7
:1005700038B504460A4600206946AFF300800028DB
:1005800008BF38BD02460099204600F0FFF8012060
:1005900038BD012000F014B9F8B5AFF3008005466E
:1005A00000200C46102000BF0646A819A0420DD915
:1005B000324669460020AFF30080070008BF00F014
:1005C000FFF80098A04218BF0546C419FFF7C8FFFE
:1005D00005600746F01D20F007004619284600F088
:1005E0000AF8B44208BFF8BDA21B31463868BDE81E
:1005F000F84000F0CBB800210160C0E9011070475D
:10060000102070472DE9F0470D4699469246044662
:1006100000F124080168880604D5E06921F0100182
:10062000216000E00120A84201DD471B00E0002717
:10063000A1697A1902EB0900081AA0612078C006A6
:1006400002D42046AFF30080002608E0D4E901215F
:100650001AF806009047206A401C761C20624E451E
:10066000F4DB2078C0060AD52046AFF3008006E010
:10067000D4E9012130209047206A401C2062381EB6
:10068000A7F10107F4DC07E0D4E9012118F805001F
:100690009047206A401C2062281EA5F10105F3DC6A
:1006A0002046AFF300802078000602D50220BDE886
:1006B000F0870120FBE7000001694A1C026108780D
:1006C000704700B58FB0CDE9013100210591054992
:1006D0007944CDE9031011466846FFF7EBFD0FB0F2
:1006E00000BD0000E5FFFFFF0A6802F8010B0A6089
:1006F000704710B5436913B1AFF3008001E0FFF715
:100700000DFE012010BD127800F124010A700022B4
:100710004A700122EDE711684FF0FF32E9E710B5AA
:10072000203AC0F00B80B1E81850203AA0E81850E9
:10073000B1E81850A0E81850BFF4F5AF5FEA027CAA
:1007400024BFB1E81850A0E8185044BF18C918C019
:10075000BDE810405FEA827C24BF51F8043B40F8BA
:10076000043B08BF7047D20728BF31F8023B48BF9F
:1007700011F8012B28BF20F8023B48BF00F8012BDD
:100780007047000000487047E001002003464068C1
:100790008C46002818BF88423CBF03464068F8D307
:1007A00018681844884207D00CF1030020F00700B5
:1007B000001D411A521A0146081D0A60FFF73FBD8D
:1007C00010B500F039F8BDE8104000F02FB87047C0
:1007D0007546FFF7D7FFAE4605006946534620F041
:1007E0000700854618B020B5FFF7E8FCBDE82040BB
:1007F0004FF000064FF000074FF000084FF0000BDD
:1008000021F00701AC46ACE8C009ACE8C009ACE88F
:10081000C009ACE8C0098D46704710B50446AFF377
:1008200000802046BDE81040FFF7B3BC002801D08F
:1008300000F02AB87047000010B5012805D000214B
:1008400003A000F027F8012010BD09A1F8E700007F
:1008500053494752544D454D3A204F7574206F66A9
:100860002068656170206D656D6F72790000000011
:100870003A2048656170206D656D6F727920636FF5
:10088000727275707465640001491820ABBEFEE792
:100890002600020070B505460C460A2000E06D1CDB
:1008A00000F011F835B128780028F8D102E0641C76
:1008B00000F009F814B120780028F8D1BDE87040A4
:1008C0000A20AFF3008008B569468DF800000320C8
:1008D000ABBE08BD00BFFEE710B5024600230020F6
:1008E00002E0145C2344401C8842FADBD8B210BDFD
:1008F000F8B504460E4615460020E060A06006F5F7
:10090000C060206000202075082020611A4800681F
:10091000009002F005FB84F8300017480178312080
:10092000015515480088011232200155124881787E
:1009300033200155A620454334200555C5F3072132
:1009400035200155C5F3074136200155290E3720C2
:10095000015500BF094800F047FA0028FAD004F119
:10096000400304F130022146044800F091F908B137
:1009700000F07EF9F8BD00003043000820000020A0
:10098000F8B504460D4616460020E060A06005F567
:10099000C060206000202075082020611748006892
:1009A000009002F0BDFA84F830001448017831203C
:1009B0000155124800880112322001550F488178F4
:1009C00033200155342006550021352001553620AD
:1009D00001553720015500BF094800F005FA0028ED
:1009E000FAD004F1400304F130022146044800F03B
:1009F0004FF908B100F03CF9F8BD000028430008A9
:100A000020000020F8B504460E4615460020E060A0
:100A1000A06006F5C06020600020207508202061DD
:100A20001A480068009002F07BFA84F830001748FA
:100A300001783120015515480088011232200155F6
:100A40001248817833200155A620454334200555AE
:100A5000C5F3072135200155C5F30741362001555F
:100A6000290E3720015500BF094800F0BDF90028C4
:100A7000FAD004F1400304F130022146044800F0AA
:100A800007F908B100F0F4F8F8BD0000344300089D
:100A90002000002038B504460D460020E060A0602C
:100AA00005F5C060206000202075082020611848EE
:100AB0000068009002F034FA84F83000144801789D
:100AC000312001551248008801123220015510488A
:100AD0008178332001550321342001550021352030
:100AE0000155362001553720015500BF094800F057
:100AF0007BF90028FAD004F1400304F130022146CA
:100B0000044800F0C5F808B100F0B2F838BD0000A4
:100B10002C4300082000002038B504460D46002074
:100B2000E060A06005F5C06020600020207508200E
:100B30002061206117480068009002F0F1F984F804
:100B40003000144801783120015512480088011204
:100B5000322001550F48817833200155002134207F
:100B6000015535200155362001553720015500BF6C
:100B7000094800F039F90028FAD004F1400304F1E3
:100B800030022146044800F083F808B100F070F804
:100B900038BD00002443000820000020F8B50446BA
:100BA0000E4615460020E060A06006F5C06020609B
:100BB00000202075082020611A480068009002F08B
:100BC000AFF984F8300017480178312001551548F5
:100BD00000880112322001551248817833200155D6
:100BE000A620454334200555C5F30721352001557E
:100BF000C5F3074136200155290E3720015500BFA6
:100C0000094800F0F1F80028FAD004F1400304F19B
:100C100030022146044800F03BF808B100F028F803
:100C2000F8BD0000384300082000002010B502483D
:100C300000F0F4FB10BD00009C01002010B502483C
:100C400000F0ECFB10BD00005801002010B5024878
:100C500000F0E4FB10BD00001401002010B50248B4
:100C600000F0DCFB10BD0000D00000207047000049
:100C700072B609E001229103044800F0CDFE012282
:100C8000D103024800F0C8FEF4E70000000C014068
:100C9000F0B504460D461E4694F82070206883681F
:100CA000A86800B900E000BF012F01D0022F7CD15D
:100CB00003F0806030B903F0006018B903F0805091
:100CC000002873D0C3F30161022905D9606A40F49A
:100CD000000060620120F0BD012088403060A868FB
:100CE00060B9B5F800C0E86840EA4C5C206800F5DF
:100CF000C07000EB0110C0F800C00FE0D5E901C0E2
:100D000040EACC00D5F80CC040EA0C00D4F800C092
:100D10000CF5C07C0CEB011CCCF80000D5F810C021
:100D2000206800F5C07000EB0110C0F804C0287DF9
:100D300001280ED1206800F5C07000EB011040685A
:100D400040F4807C206800F5C07000EB0110C0F812
:100D500004C0D079000692F806C040EA0C4092F830
:100D600005C040EA0C2C10794CEA000C206800F514
:100D7000C07000EB0110C0F80CC0D078000692F8EB
:100D800002C040EA0C4092F801C040EA0C2092F800
:100D900000C040EA0C00D4F800C00CF5C07C0CEB9D
:100DA000011CCCF80800206801E016E00FE000F517
:100DB000C07000EB0110006840F0010C206800F5E5
:100DC000C07000EB0110C0F800C0002083E7606A2B
:100DD00040F40010606201207DE7606A40F48020EA
:100DE0006062012077E770470146002091F82020DB
:100DF000012A01D0022A11D10B689B6803F080639D
:100E000003B1401C0B689B6803F0006303B1401CF6
:100E10000B689B6803F0805303B1401C70472DE9B9
:100E2000F05F04460025206846692068D0F80490E9
:100E3000206887682068D0F80CA02068D0F810B02F
:100E40002068D0F8188006F00100002855D007F07F
:100E50000100C0B101202168886007F0020018B1CC
:100E6000204600F052FA0EE007F0040010B145F4FD
:100E7000006508E007F0080010B145F4805502E075
:100E8000204600F041FA07F48070C8B14FF480703A
:100E90002168886007F4007018B1204600F037FA26
:100EA0000EE007F4806010B145F4005508E007F447
:100EB000006010B145F4804502E0204600F026FABB
:100EC00007F48030C8B14FF480302168886007F49F
:100ED000003018B1204600F01CFA0EE007F4802024
:100EE00010B145F4004508E007F4002010B145F4C6
:100EF000803502E0204600F00BFA06F0080038B119
:100F00000AF0100020B145F4007510202168C86077
:100F100006F0040040B10AF0080028B1082021685A
:100F2000C860204600F0BCF906F0020038B1206825
:100F3000C06800F0030010B1204600F0B2F906F0DE
:100F4000400038B10BF0100020B145F4806510204E
:100F50002168086106F0200040B10BF0080028B1BC
:100F6000082021680861204600F09CF906F0100076
:100F700038B12068006900F0030010B1204600F08D
:100F800092F906F4003040B109F0100028B11020A9
:100F900021684860204600F087F906F4803040B1AF
:100FA00009F0080028B1082021684860204600F0B8
:100FB000B1F906F4004088B309F0040078B306F4F0
:100FC000807020B108F0010008B145F0010506F479
:100FD000007020B108F0020008B145F0020506F4E7
:100FE000806020B108F0040008B145F0040506F463
:100FF0000060A0B108F0700088B108F070004028CF
:1010000017D006DC10280BD020280CD0302819D19E
:101010000CE0502810D0602814D110E01DE019E039
:1010200045F008050FE045F010050CE045F02005FF
:1010300009E045F0400506E045F0800503E045F491
:10104000807500E000BF00BF2068806920F070005C
:10105000216888610420216848602DB1606A2843B6
:1010600060622046FFF7BFFEBDE8F09F70B5044602
:101070000CB9012070BD94F8200010B9204600F092
:10108000AFF82068006840F001002168086000F0B7
:10109000C9FC05460DE000F0C5FC401B0A2808D934
:1010A000606A40F400306062052084F8200001206E
:1010B000E0E72068406800F001000028EBD02068DD
:1010C000006820F002002168086000F0ABFC0546D3
:1010D0000DE000F0A7FC401B0A2808D9606A40F424
:1010E00000306062052084F820000120C2E72068FB
:1010F000406800F002000028EBD1207E012806D1D4
:101100002068006840F080002168086005E02068E1
:10111000006820F0800021680860607E012806D108
:101120002068006840F040002168086005E0206801
:10113000006820F0400021680860A07E012806D1E8
:101140002068006840F020002168086005E0206801
:10115000006820F0200021680860E07E012806D1A8
:101160002068006820F010002168086005E0206811
:10117000006840F0100021680860207F012806D137
:101180002068006840F008002168086005E02068D9
:10119000006820F0080021680860607F012806D1FF
:1011A0002068006840F004002168086005E02068BD
:1011B000006820F0040021680860D4E902010843B7
:1011C00021690843616908436168491E0843216831
:1011D000C86100206062012084F82000002049E7F7
:1011E00010B586B00446002002900390049005904C
:1011F00027492068884249D100BF2648C06940F08D
:1012000000702449C8610846C06900F00070019070
:1012100000BF00BF00BF0846806940F00800886139
:101220000846806900F00800019000BF00BF8815E3
:10123000029000200390049002A9174800F052FA8F
:101240004FF400700290022003900320059002A941
:10125000114800F047FA00BF1049486820F4C04028
:1012600040F0E06040F48040486000BF002211463A
:10127000132000F05DFC132000F04AFC0022114610
:10128000142000F055FC142000F042FC06B010BD04
:101290000064004000100240000C014000000140CA
:1012A0007047704770477047704770B5044694F8B0
:1012B0002000012822D1022084F820002068006844
:1012C00020F001002168086000F0ACFB05460DE04D
:1012D00000F0A8FB401B0A2808D9606A40F40030DF
:1012E0006062052084F82000012070BD20684068FD
:1012F00000F001000028EBD16062F6E7606A40F47C
:10130000002060620120F0E7704770477047704727
:101310007047704770470146002291F8210002286B
:1013200008D00420886300BF002081F8200000BF9F
:10133000012070470868006820F00E000B681860F4
:101340000868006820F001000B68186091F84030D0
:1013500001209840CB6B5860012081F8210000BF2C
:10136000002081F8200000BF1046E2E770B5044677
:10137000002594F82100022803D00420A063012551
:1013800048E02068006820F00E00216808602068AE
:10139000006820F00100216808601F492068884229
:1013A00001D1012026E01C4914312068884201D176
:1013B00010201FE0184928312068884201D180158B
:1013C00018E015493C312068884201D1801411E0B1
:1013D000114950312068884202D14FF4803009E031
:1013E0000D4964312068884202D14FF4801001E039
:1013F0004FF08070084908394860012084F82100C6
:1014000000BF002084F8200000BF606B10B12046B0
:10141000616B8847284670BD0800024070B50446DD
:10142000E06B05682068066894F840100420884046
:101430002840002846D006F00400002842D020684A
:10144000006800F0200028B92068006820F004003F
:101450002168086057492068884201D1042027E0AC
:10146000544914312068884201D1402020E051497C
:1014700028312068884201D1001519E04D493C31DE
:101480002068884202D14FF4804011E04949503130
:101490002068884202D14FF4802009E04549643138
:1014A0002068884202D14FF4800001E04FF0806054
:1014B000404908394860E06A00287AD02046E16A4D
:1014C000884776E094F84010022088402840A0B376
:1014D00006F0020088B32068006800F0200040B9E0
:1014E0002068006820F00A0021680860012084F864
:1014F000210030492068884201D1022028E02D498E
:1015000014312068884201D1202021E02949283166
:101510002068884201D140151AE026493C312068F4
:10152000884202D14FF4005012E022495031206825
:10153000884203D14FF400300AE017E01D496431BE
:101540002068884202D14FF4001001E04FF0007093
:1015500018490839486000BF002084F8200000BF07
:10156000A06A30B32046A16A884722E094F8401070
:10157000082088402840E0B106F00800C8B1206883
:10158000006820F00E002168086094F840100120E7
:101590008840E16B48600120A06384F8210000BF0F
:1015A000002084F8200000BF206B10B12046216B82
:1015B000884770BD080002400146002209B9012099
:1015C0007047164B0868C01A1423B0FBF3F0800074
:1015D000086412480838C863022081F821000868AE
:1015E000026843F6F0708243D1E901031843CB68E7
:1015F00018430B6918434B6918438B691843CB692F
:10160000184302430868026000208863012081F8C3
:101610002100002081F8200000BFD1E7080002402F
:101620002DE9F04104460D4616461F464FF00008CE
:1016300000BF94F82000012802D10220BDE8F0810B
:10164000012084F8200000BF94F8210001282CD14B
:10165000022084F821000020A0632068006820F0A8
:101660000100216808603B4632462946204601F0C9
:101670006DFCE06A30B12068006840F00E0021681F
:1016800008600BE02068006820F004002168086012
:101690002068006840F00A0021680860206800683F
:1016A00040F001002168086006E000BF002084F8D7
:1016B000200000BF4FF002084046BFE770B5044667
:1016C00000F0B0F906462546681C10B104480078C1
:1016D000054400BF00F0A6F9801BA842FAD370BDF4
:1016E000080000202DE9F8470346002294466EE1E9
:1016F0004FF0010808FA02F4D1F8008008EA04006B
:10170000A0427DD1DFF8DCA2D1F80480A8EB0A0961
:10171000D0453AD014DCB8F1030F50D009DCB8F151
:10172000000F31D0B8F1010F1CD0B8F1020F49D130
:1017300020E0B8F1110F18D0B8F1120F42D11EE01D
:10174000B9F5881F25D006DCB9F5803F20D0B9F562
:10175000801F37D11AE0B9F5001F18D0B9F5041F62
:1017600030D117E0D1F80CC02DE0D1F80C8008F191
:10177000040C28E0D1F80C8008F1080C23E0D1F823
:101780000C8008F10C0C1EE000BF00BF00BF00BFC2
:1017900000BF00BFD1F80880B8F1000F02D14FF0B0
:1017A000040C0BE0D1F80880B8F1010F03D14FF021
:1017B000080C1C6102E04FF0080C5C6103E04FF084
:1017C000000C00E000BF00BFFF2801D8984601E0F0
:1017D00003F104084646FF2802D84FEA820803E0D6
:1017E000A2F108084FEA88084746D6F800804FF073
:1017F0000F0909FA07F928EA09080CFA07F900E0C5
:1018000088E048EA0908C6F80080D1F8048008F0AA
:101810008058B8F1805F7DD100BFDFF8CC81D8F867
:10182000188048F00108DFF8C091C9F81880C84650
:10183000D8F8188008F00108CDF8008000BF00BF7C
:101840004FEAB9384FEA920958F829504FEA82789E
:101850004FEA18794FF00F0808FA09F825EA080549
:10186000DFF88881434502D14FF0000816E0DFF829
:101870008081434502D14FF001080FE0DFF8748109
:10188000434502D14FF0020808E0DFF86C81434580
:1018900002D14FF0030801E04FF004084FEA8279CB
:1018A0004FEA197908FA09F848EA0505DFF84C818A
:1018B0004FEA920948F82950D1F8048008F480389A
:1018C000B8F5803F0AD1DFF83881D8F8008048EABF
:1018D0000008DFF82C91C9F8008009E0DFF82081CA
:1018E000D8F8008028EA0008DFF81491C9F80080D1
:1018F000D1F8048008F40038B8F5003F10D1DFF8C3
:10190000008108F10408D8F8008048EA0008DFF8F0
:10191000F09000E05AE009F10409C9F800800DE0F8
:10192000DFF8DC8008F10408D8F8008028EA000815
:10193000DFF8CC9009F10409C9F80080D1F80480DF
:1019400008F48018B8F5801F0ED1DFF8B48008F1D4
:101950000808D8F8008048EA0008DFF8A49009F1E8
:101960000809C9F800800DE0DFF8948008F1080844
:10197000D8F8008028EA0008DFF8849009F1080907
:10198000C9F80080D1F8048008F40018B8F5001FE9
:101990000ED1DFF86C8008F10C08D8F8008048EA16
:1019A0000008DFF85C9009F10C09C9F800800DE02F
:1019B000DFF84C8008F10C08D8F8008028EA00080D
:1019C000DFF83C9009F10C09C9F80080521CD1F8ED
:1019D000008028FA02F8B8F1000F7FF489AEBDE864
:1019E000F8870000000011100010024000080140BC
:1019F000000C0140001001400014014008000140AB
:101A00000004014010B5C26821EA020302EA0104A1
:101A100043EA0443036110BD0AB1016101E00B0414
:101A20000361704701480068704700000000002013
:101A30000348006803490978084401490860704771
:101A4000000000200800002010B50848006840F0A1
:101A5000100006490860032000F0A8F80F2000F0ED
:101A600007F800F02BF8002010BD00000020024015
:101A700070B504460E4800784FF47A71B1FBF0F06F
:101A80000C490968B1FBF0F5284600F00BFC08B1E1
:101A9000012070BD102C07D200222146501E00F0FC
:101AA00047F80548046001E00120F2E70020F0E774
:101AB000080000200C0000200400002008B500BF32
:101AC0001148806940F001000F498861084680692B
:101AD00000F00100009000BF00BF00BF0846C069D1
:101AE00040F08050C8610846C06900F08050009006
:101AF00000BF00BF00BF0549486820F0E06000BF9C
:101B0000486000BF08BD0000001002400000014016
:101B100001460846002809DB00F01F0301229A4015
:101B200043099B0003F1E023C3F8002100BF704785
:101B30002DE9F05F80460D461646002701F046FC71
:101B4000074639462A46334601F00700C0F1070A26
:101B5000BAF1040F02D94FF0040A01E0C0F1070AFC
:101B6000D14600F1040ABAF1070F02D24FF0000A81
:101B700001E0A0F1030AD4464FF0010A0AFA09FA7B
:101B8000AAF1010A0AEA020A0AFA0CFA4FF0010B5A
:101B90000BFA0CFBABF1010B0BEA030B4AEA0B044B
:101BA0002146404601F0FEFBBDE8F09F00BF00F07B
:101BB0000702064B19684FF6FF031940044B0B430D
:101BC00043EA0221014B196000BF70470CED00E0B1
:101BD0000000FA0570B504460D460CB9012070BD31
:101BE0005A48006800F00700A8420ED25748006823
:101BF00020F007002843554908600846006800F0B7
:101C00000700A84201D00120E9E7207800F0020097
:101C100002281DD1207800F00400042805D14C488A
:101C2000406840F4E0604A494860207800F00800CD
:101C3000082805D14648406840F46050444948604F
:101C40004348406820F0F000A168084340494860DC
:101C5000207800F0010078B36068012806D13C4884
:101C6000006800F4003090B90120B8E760680228ED
:101C700006D13748006800F0007040B90120AEE797
:101C80003348006800F0020008B90120A7E7304897
:101C9000406820F00300616808432D494860FFF761
:101CA000C1FE064609E0FFF7BDFE801B41F2883108
:101CB000884202D9032092E707E02548406800F0F7
:101CC0000C006168B0EB810FEDD12048006800F096
:101CD0000700A8420ED91D48006820F007002843DD
:101CE0001A4908600846006800F00700A84201D0C1
:101CF000012074E7207800F00400042807D114487C
:101D0000406820F4E060E1680843114948602078A9
:101D100000F00800082808D10D48406820F4605001
:101D2000216940EAC1000A49486000F03FF80849CB
:101D30004968C1F30311074A515CC840064908606D
:101D400006480068FFF794FE002048E700200240A4
:101D5000001002400C4300080C000020040000208A
:101D600001480068704700000C00002000B5FFF734
:101D7000F7FF04494968C1F30221034A515CC84096
:101D800000BD0000001002401C43000800B5FFF732
:101D9000E7FF04494968C1F3C221034A515CC840C6
:101DA00000BD0000001002401C430008F0B585B0E3
:101DB0000FF26C0C9CE8E01001A8A0E8E0101CA554
:101DC0002D68009500210022002300240020194DD9
:101DD000696801F00C05EDB1042D02D0082D1AD16F
:101DE00001E0154819E001ADC1F38346AC5D01F493
:101DF000803555B10F4D6D68C5F340451DF8052080
:101E00000D4D6543B5FBF2F302E00C4D04FB05F309
:101E1000184602E000BF084800BF00BF05B0F0BD93
:101E200002030405060708090A0B0C0D0E0F10101B
:101E3000010200000010024000127A0000093D007B
:101E4000F8B504460CB90120F8BD207800F0010077
:101E5000002878D0F848406800F00C0004280CD026
:101E6000F548406800F00C00082811D1F24840689D
:101E700000F48030B0F5803F0AD1EF48006800F4EC
:101E8000003000285FD0606800285CD10120DBE7CB
:101E900000BF6068B0F5803F06D1E748006840F4B5
:101EA0008030E549086028E0606858B9E248006879
:101EB00020F48030E04908600846006820F4802063
:101EC00008601AE06068B0F5A02F0BD1DA4800680E
:101ED00040F48020D84908600846006840F480300B
:101EE00008600AE0D448006820F48030D2490860D5
:101EF0000846006820F48020086000BF606888B150
:101F0000FFF790FD054606E0FFF78CFD401B6428B7
:101F100001D9032098E7C848006800F40030002881
:101F2000F2D010E0FFF77EFD054606E0FFF77AFDF0
:101F3000401B642801D9032086E7BF48006800F4ED
:101F400000300028F2D1207800F00200022857D19A
:101F5000B948406800F00C0050B1B748406800F044
:101F60000C00082818D1B448406800F4803098B9B3
:101F7000B148006800F0020020B12069012801D0BA
:101F8000012061E7AC48006820F0F800616940EA90
:101F9000C100A949086033E02069E8B10120A749E0
:101FA0000860FFF73FFD054606E0FFF73BFD401BDD
:101FB000022801D9032047E79F48006800F002008B
:101FC0000028F2D09C48006820F0F800616940EADF
:101FD000C1009949086013E0002098490860FFF7A4
:101FE00021FD054606E0FFF71DFD401B022801D933
:101FF000032029E79048006800F002000028F2D191
:10200000207800F0080008282DD1A069B8B101207F
:102010008B490860FFF706FD054606E0FFF702FD65
:10202000401B022801D903200EE78348406A00F0D4
:1020300002000028F2D0012000F09EFF13E00020F3
:102040007F490860FFF7EEFC054606E0FFF7EAFC73
:10205000401B022801D90320F6E67748406A00F0C9
:1020600002000028F2D1207800F00400042873D187
:1020700000277148C06900F0805070B900BF6E48F9
:10208000C06940F080506C49C8610846C06900F0E2
:102090008050009000BF00BF01276A48006800F42C
:1020A0008070B0B96748006840F480706549086086
:1020B000FFF7B8FC054606E0FFF7B4FC401B6428B8
:1020C00001D90320C0E65F48006800F48070002852
:1020D000F2D000BFE068012806D15748006A40F0FE
:1020E00001005549086227E0E06858B95248006A83
:1020F00020F00100504908620846006A20F0040000
:10210000086219E0E06805280BD14B48006A40F0EE
:102110000400494908620846006A40F0010008626C
:102120000AE04548006A20F0010043490862084679
:10213000006A20F00400086200BFE068A0B1FFF769
:1021400071FC054609E0FFF76DFC401B41F2883148
:10215000884202D9032077E622E03748006A00F07F
:1021600002000028EFD012E0FFF75CFC054608E013
:10217000FFF758FC401B41F28831884201D9032007
:1021800062E62D48006A00F002000028F0D1012F1D
:1021900005D12948C06920F080502749C86100BF97
:1021A000E069C8B32448406800F00C00082860D0FB
:1021B000E069022848D1002020490866FFF732FC78
:1021C000054606E0FFF72EFC401B022801D903203C
:1021D0003AE61948006800F000700028F2D1206A41
:1021E000B0F5803F07D11448406820F40030A16862
:1021F000084311494860D4E9080108430E49496879
:1022000021F4741108430C49486001200B49086609
:10221000FFF708FC054607E03DE0FFF703FC401B25
:10222000022801D903200FE60348006800F000707F
:102230000028F2D02FE000000010024000004242CF
:102240008004424200700040002014490866FFF7F5
:10225000E9FB054606E0FFF7E5FB401B022801D934
:102260000320F1E50E48006800F000700028F2D16C
:1022700011E0E069012800D1E6E50948466806F466
:102280008031206A814204D106F47011606A814273
:1022900001D00120D8E50020D6E500000000424230
:1022A0000010024070B504462546681EB0F1807FDC
:1022B00001D301200FE0681E4FF0E02148610F219B
:1022C0004FF0FF3001F06EF800204FF0E021886100
:1022D00007200861002070BD704770B504460025D6
:1022E00020684069C0F3C01594F83D0021280ED144
:1022F0006DB12068406920F0800021684861606B02
:1023000010B1606BFFF707F8204600F0BCFF2068B3
:102310004069C0F3801594F83E0022280ED16DB1BB
:102320002068406920F0400021684861A06B10B12E
:10233000A06BFEF7F0FF204600F08AFF002070BD82
:10234000704700002DE9F84F0446206805682068B2
:10235000C668206847694FF00009CA4605F00F09B2
:10236000B9F1000F0AD105F0200038B106F02000C5
:1023700020B1204600F0BAFEBDE8F88FB9F1000F99
:1023800071D007F0010018B906F4907000286AD0E7
:1023900005F0010030B106F4807018B1206C40F0F7
:1023A0000100206405F0040030B107F0010018B10D
:1023B000206C40F00200206405F0020030B107F00C
:1023C000010018B1206C40F00400206405F0080002
:1023D00048B106F0200010B907F0010018B1206CD8
:1023E00040F008002064206C68B305F0200028B19C
:1023F00006F0200010B1204600F078FE2068406909
:10240000C0F3801A206C00F0080010B9BAF1000F78
:1024100022D0204600F01CFF2068406900F04000F8
:10242000B0B12068406920F0400021684861A06B8D
:1024300050B15648A16B4863A06BFEF797FF10B1EF
:10244000A06B416B88470CE02046FFF779FF08E05E
:102450002046FFF775FF04E02046FFF771FF0020DC
:10246000206489E7FFE7206B012878D105F0100090
:10247000002874D006F01000002870D000BF0020A3
:10248000009020680068009020684068009000BFBD
:1024900000BF2068406900F04000C0B3A06B006836
:1024A00040681FFA80F8B8F1000F2FD0A08D40458A
:1024B0002CDDA4F82E80A06B806920281FD0206816
:1024C000C06820F480702168C8602068406920F0EE
:1024D0000100216848612068406920F040002168BF
:1024E0004861202084F83E00002020632068C068F6
:1024F00020F010002168C860A06BFEF70CFFA08DD3
:10250000E28D801A81B22046FFF7E6FE34E7FFE74E
:10251000A08DE18D401A1FFA80F8E08DE8B1B8F186
:10252000000F1AD02068C06820F490702168C8603D
:102530002068406920F0010021684861202084F86B
:102540003E00002020632068C06820F01000216851
:10255000C86041462046FFF7BFFE0DE7FFE705F0E4
:10256000800030B106F0800018B1204600F030FE47
:1025700002E705F0400030B106F0400018B12046F7
:1025800000F0BFFEF8E600BFF6E6000023330008C7
:1025900010B504460CB9012010BDA06900B100E0DF
:1025A00000BF94F83D0028B9002084F83C00204684
:1025B00000F028F8242084F83D002068C06820F44A
:1025C00000502168C860204600F012FD20680069B4
:1025D00020F49040216808612068406920F02A00BA
:1025E000216848612068C06840F400502168C860D4
:1025F00000202064202084F83D0084F83E00002064
:10260000CAE7000010B586B004460020029003908F
:10261000049005907149206888426CD100BF7048D1
:10262000806940F480406E4988610846806900F402
:102630008040019000BF00BF00BF0846806940F0A5
:10264000040088610846806900F00400019000BF22
:1026500000BF48150290022003900320059002A9B4
:102660006048FFF73FF84FF480600290002003902D
:10267000049002A95B48FFF735F85B485B490860A6
:10268000002048600021594881608021C1600021FC
:1026900001614161202181610021C161FEF78CFF50
:1026A00008B1FEF7E5FA00BF5048A063446200BFDE
:1026B0004D4814384E4908601020486000214C48AD
:1026C00081608021C1600021016141618161C1613E
:1026D000FEF772FF08B1FEF7CBFA00BF4448606313
:1026E000446200BF002211462520FFF721FA252071
:1026F000FFF70EFA70E03F49206888426CD100BFB6
:102700003748C06940F480203549C8610846C0692F
:1027100000F48020019000BF00BF00BF0846806920
:1027200040F0080088610846806900F008000190C8
:1027300000BF00BF081502900220039003200590FF
:1027400002A92D48FEF7CEFF4FF400600290002052
:102750000390049002A92848FEF7C4FF22482838B5
:1027600026490860002048600021244881608021BB
:10277000C160002101614161202181610021C161AD
:10278000FEF71AFF08B1FEF773FA00BF1B48A063FB
:10279000446200BF14483C38194908601020486062
:1027A0000021174881608021C160002101614161E1
:1027B0008161C161FEF700FF08B1FEF759FA00BF61
:1027C0000F486063446200BF002211462720FFF7D4
:1027D000AFF92720FFF79CF906B010BD0038014083
:1027E000001002400008014058000240D0000020C4
:1027F0001401002000480040000C01405801002056
:102800009C01002070B504460D46164694F83E0023
:10281000202816D105B10EB9012070BD00BF94F873
:102820003C00012801D10220F7E7012084F83C0098
:1028300000BF0020206332462946204600F0EEF912
:10284000EBE70220E9E7704770472DE9F84F0446AF
:102850000E46174699464FF0000A94F83D0020288E
:102860005AD106B117B90120BDE8F88F00BF94F81E
:102870003C00012801D10220F6E7012084F83C0049
:1028800000BF00202064212084F83D00FFF7CAF833
:102890008246A784E784A068B0F5805F04D12069F0
:1028A00010B90025B04602E035464FF0000800BFE1
:1028B000002084F83C0000BF1BE05346002280212A
:1028C0002046CDF8009000F036FD08B10320CBE79C
:1028D00045B9B8F80000C0F308002168486008F165
:1028E000020803E02878216848606D1CE08C401ED7
:1028F000E084E08C0028E0D15346002240212046AD
:10290000CDF8009000F017FD08B10320ACE72020BF
:1029100084F83D000020A7E70220A5E7704700BF2C
:10292000FEE7000010B50D480D4908600C20486016
:1029300000210B488160C1604FF400310161C90082
:1029400041610021017641768176C1760177417738
:10295000FEF78CFB08B1FEF78BF910BD0064004058
:102960002000002008B500BF1648406940F0010073
:10297000144948610846406900F00100009000BF1A
:1029800000BF002211460C20FFF7D2F80C20FFF701
:10299000BFF8002211460D20FFF7CAF80D20FFF7FF
:1029A000B7F8002211460E20FFF7C2F80E20FFF7FD
:1029B000AFF8002211460F20FFF7BAF80F20FFF7FB
:1029C000A7F808BD0010024000B585B000200190B6
:1029D00002900390049000BF1D48806940F02000E1
:1029E0001B4988610846806900F02000009000BF04
:1029F00000BF00BF0846806940F0080088610846B3
:102A0000806900F00800009000BF00BF00BF0846CA
:102A1000806940F0040088610846806900F0040085
:102A2000009000BF00BF00224FF440410948FEF76C
:102A3000F3FF4FF4404001900120029000200390EA
:102A40000320049001A90348FEF74CFE05B000BD29
:102A500000100240000C014010B50B480B49086003
:102A60004FF4E1304860002108488160C160016195
:102A70000C21416100218161C161FFF789FD08B12D
:102A8000FEF7F6F810BD00000038014048000020B5
:102A900010B50B480B4908604FF4E1304860002145
:102AA00008488160C16001610C21416100218161A0
:102AB000C161FFF76DFD08B1FEF7DAF810BD000047
:102AC000004800408C00002000BFFEE700BFFEE78A
:102AD000704700002DE9F0410646002436B1022E71
:102AE00023D0042E40D0052E7DD15FE0242528463A
:102AF000FDF776FB044600F07DF90188218080789F
:102B0000A0702021A17000F075F900F581772022D6
:102B10003946E01CFDF768FC681EC1B22046FDF78F
:102B2000DBFE611901F8010C62E044252846FDF73F
:102B300057FB044600F05EF9018821808078A07080
:102B40004021A17000F056F900F5917740223946F6
:102B5000E01CFDF749FC681EC1B22046FDF7BCFE33
:102B6000611901F8010C43E000F044F900F58077A9
:102B700000F040F950F8031F47F8621F8088B880C2
:102B800004252846FDF72CFB044600F033F90188A4
:102B900021808078A0700021A170681EC1B22046FB
:102BA000FDF79AFE611901F8010C21E01425284671
:102BB000FDF716FB044600F01DF90188218080789E
:102BC000A0701021A17000F015F900F5B477102263
:102BD0003946E01CFDF708FC681EC1B22046FDF72F
:102BE0007BFE611900E002E001F8010C00E000BF8B
:102BF00000BF0A232A4621460448FFF726FE204646
:102C0000FDF71DFB0024BDE8F08100004800002016
:102C1000704710B5FEF70CFF10BD704777B581B057
:102C2000044615460298A062A58500202064222053
:102C300084F83E001C48A16B88621C48A16BC862E6
:102C40001B48A16B08630020A16B486302AE326889
:102C50002368191D2B46A06BFEF7E2FC00BF002085
:102C6000009020680068009020684068009000BFD5
:102C700000BF00BF002084F83C0000BF2068C0688F
:102C800040F480702168C8602068406940F001000D
:102C9000216848612068406940F04000216848612F
:102CA000002004B070BD00009B32000831320008E3
:102CB000A12F000810B50348FFF744FB014800F0BE
:102CC00041F810BD4800002010B50248FFF73AFB5C
:102CD00010BD00008C00002010B50248FEF79FF8E0
:102CE00010BD00002000002010B50248FEF797F844
:102CF00010BD00002000002070B504460E49206879
:102D0000884218D10D48FFF7E8FA00F073F80C4933
:102D100009684968C1F1FF01C0F83C1200F06AF887
:102D20000121C0F8401200F065F80546FF2229464F
:102D30000248FFF767FD70BD0038014048000020E1
:102D4000D000002038B504460D492068884215D1CE
:102D50000C4800680068C0F3001078B100BF002084
:102D600000900848006800680090064800684068C5
:102D7000009000BF00BF2046FFF7BEFF38BD000037
:102D8000003801404800002000BFFEE700B58FB0CA
:102D9000282105A8FDF78FFB14216846FDF78BFB62
:102DA0000120059000040690002007900120099062
:102DB00002200C90C1030D914FF4E0110E9105A873
:102DC000FFF73EF808B1FDF753FF0F2000900220F7
:102DD0000190002002904FF4806003900020049046
:102DE00002216846FEF7F6FE08B1FDF741FF0FB07D
:102DF00000BD704710B50848007800F0010048B9E0
:102E0000054800F0F2FD28B1044800F009F8024836
:102E1000AFF30080014810BD1400002040020020E4
:102E200038B50446FF212046FDF723FB402104F579
:102E30009170FDF71EFB002104F5B170C4F862111A
:102E4000A4F866111021801DFDF713FB242104F561
:102E50000670FDF70EFB9620A4F822014FF4DC71FA
:102E600004F59170A4F8241142F21071A4F826110F
:102E700000214FF49470015504F59170A4F82911C4
:102E8000A4F82B11A4F82D11A4F82F110A21A4F8ED
:102E900031114FF4FA71A4F83311A4F835118900F7
:102EA000A4F83711002140F239100155282104F50A
:102EB0009170A4F83A1101214FF49E7001550F2131
:102EC000401C0155401C015506220AA104F58170E1
:102ED000FDF718FB4FF49F70005D009040F23D102D
:102EE000035D06A208A104F58970FDF7CFF920461D
:102EF00038BD000076312E312E31000032303232B2
:102F0000303330310000000025732D6D25646525B8
:102F1000640000004FF0E0200069C0F300407047FB
:102F200001B59DF8030002280CD0042804D006281F
:102F300006D0072808D101E0232008BD2320FCE7A4
:102F40002B20FAE72F20F8E70020F6E730B590F8BD
:102F500040500124AC40C56B6C60046863604468F9
:102F6000102C04D10468A2600468E16003E00468E6
:102F7000A1600468E26030BD08B508490968C90865
:102F80004FF47A72B1FBF2F14143009100BF00BFF0
:102F900000994A1E00920029F9D108BD0C000020BA
:102FA00070B506460025746A20684069C0F3C015F4
:102FB00094F83D00212805D125B10020E084204669
:102FC00000F061F920684069C0F3801594F83E0074
:102FD000222805D125B10020E085204600F038F9EF
:102FE000206C40F0100020642046FFF7A9F970BD66
:102FF00070B504462168096921F44051E268114323
:10300000226811612269A1681143626941EA0205DF
:103010002168C96841F20C62914329432268D1605A
:103020002168496921F44071A26911432268516104
:103030002D4A2168914202D1FEF7A8FE01E0FEF779
:1030400095FE00EBC00101EB001162689200B1FB3C
:10305000F2F100EBC00202EB001263689B00B2FBCE
:10306000F3F26423B2FBF3F202EBC20303EB0212AE
:10307000A1EB8201322202EB01116422B1FBF2F1D9
:1030800001F0F00100EBC00202EB001263689B004C
:10309000B2FBF3F26423B2FBF3F201EB021200EB9A
:1030A000C00101EB001163689B00B1FBF3F100EB81
:1030B000C00303EB00136668B600B3FBF6F36426A7
:1030C000B3FBF6F303EBC30606EB0313A1EB83019B
:1030D000322303EB01116423B1FBF3F101F00F0183
:1030E00011442268916070BD00380140F8B5044673
:1030F00094F83E00222869D1A068B0F5805F0CD119
:10310000206950B90025A66A20684068C0F308000D
:103110003080A06A801CA06215E0A56A0026A06825
:10312000B0F5805F03D0A06828B9206918B920687D
:103130004068287004E02068406800F07F00287034
:10314000A06A401CA062E08D401E80B2E085A8BB52
:103150002068C06820F020002168C8602068C0682E
:1031600020F480702168C8602068406920F0010068
:1031700021684861202084F83E00206B01281ED180
:10318000002020632068C06820F010002168C8601B
:103190002068006800F0100010280AD100BF00204D
:1031A000009020680068009020684068009000BF90
:1031B00000BFA18D2046FFF78FF803E004E0204612
:1031C000FFF741FB0020F8BD0020FCE70220FAE7F2
:1031D000014691F83D00212828D18868B0F5805F2C
:1031E0000BD1086948B90A6A1088C0F308000B6857
:1031F0005860086A801C086205E00B6A581C086267
:1032000018780B685860C88C401E80B2C88458B9C2
:103210000868C06820F080000B68D8600868C06843
:1032200040F040000B68D860002070470220FCE7A7
:1032300070B505466C6A206B012805D1A08D410848
:103240002046FFF749F802E02046FFF7FDFA70BD7F
:103250000168C96821F490710268D1600168496908
:1032600021F0010102685161016B012905D101685A
:10327000C96821F010010268D160202180F83E1059
:103280000021016370470168C96821F0C00102682C
:10329000D160202180F83D10704770B505466C6AFA
:1032A0002868006800F02000F8B90020E085206858
:1032B000C06820F480702168C8602068406920F0F0
:1032C0000100216848612068406920F040002168C1
:1032D0004861202084F83E00206B012805D1206839
:1032E000C06820F010002168C860206B012804D15C
:1032F000A18D2046FEF7F0FF02E02046FFF7A3FA7B
:1033000070BD10B504462068C06820F040002168F8
:10331000C860202084F83D002046FFF7FFFA002017
:1033200010BD70B505466C6A0020E085E08420463B
:10333000FFF706F870BD2DE9F04104460D4617462B
:103340009846069E21E0701CF8B12EB1FEF76AFB8C
:10335000A0EB0800B04218D92068C06820F4D070F3
:103360002168C8602068406920F001002168486138
:10337000202084F83D0084F83E0000BF002084F83F
:103380003C0000BF0320BDE8F081206800682840B1
:10339000A84201D1012000E00020B842D3D0002093
:1033A000F1E7000010B5002804DB0A07130E054AF8
:1033B000135406E00A07140E034A00F00F031B1F04
:1033C000D45410BD00E400E018ED00E002480068AD
:1033D000C0F30220704700000CED00E070B5054618
:1033E000FFF708FD00F5B47410212046FDF741F801
:1033F000FFF700FD00F5BC7410212046FDF739F8F9
:1034000070BD000010B50446204600F009F84FF4E6
:1034100080410248FEF7F6FA10BD0000000C0140A2
:1034200070B50446FFF7E6FCD0F84002012800D052
:1034300070BDFFF7DFFC00785A2800D0F8E7FFF7EF
:10344000D9FC4078092826D2DFE800F005090A13E4
:10345000171E222324000020FFF73CFB1CE01BE08A
:10346000FFF7C8FC0546FFF7C4FC0220FFF732FB5C
:1034700012E02046FFF7B2FF0EE00420FFF72AFB20
:10348000204600F01FF807E00520FFF723FB03E0CC
:1034900002E001E000BF00BF00BF204600F080FA5C
:1034A000FFF7A8FC0546FF21FCF7E3FFFFF7A2FCAE
:1034B0000021C0F84012FFF79DFC0021C0F83C122B
:1034C00000BFB5E72DE9F04F9DB08346FFF792FCB2
:1034D000B0F96251FFF78EFCB0F8330100B2404200
:1034E000854204DDFFF786FCB0F9625105E0FFF785
:1034F00081FCB0F8330100B24542FFF77BFCB0F825
:10350000330100B2854217DAFFF774FCB0F962515B
:10351000FFF770FCB0F8330100B24042854204DD91
:10352000FFF768FCB0F962010BE0FFF763FCB0F84D
:10353000330100B2404204E0FFF75CFCB0F8330115
:1035400000B204B2FFF756FCB0F96451FFF752FC29
:10355000B0F8350100B24042854204DDFFF74AFC75
:10356000B0F9645105E0FFF745FCB0F8350100B251
:103570004542FFF73FFCB0F8350100B2854217DA4B
:10358000FFF738FCB0F96451FFF734FCB0F83501AF
:1035900000B24042854204DDFFF72CFCB0F9640123
:1035A0000BE0FFF727FCB0F8350100B2404204E021
:1035B000FFF720FCB0F8350100B20FFA80F9FFF7F1
:1035C00019FCB0F96651FFF715FCB0F8370100B2ED
:1035D0004042854204DDFFF70DFCB0F9665105E07D
:1035E000FFF708FCB0F8370100B24542FFF702FCD4
:1035F000B0F8370100B2854217DAFFF7FBFBB0F9EC
:103600006651FFF7F7FBB0F8370100B24042854240
:1036100004DDFFF7EFFBB0F966010BE0FFF7EAFB13
:10362000B0F8370100B2404204E0FFF7E3FBB0F826
:10363000370100B20FFA80FA204600F054FC05462C
:103640000022674B00F0C8FACDE91601484600F0A9
:103650004AFC05460022624B00F0BEFACDE9180193
:10366000504600F040FC054600225D4B00F0B4FAE5
:10367000CDE91A01FFF7BEFBB0F82271384600F021
:1036800049FC0546574A584B00F058FCCDE910015B
:10369000FFF7B0FBB0F83A71384600F03BFCCDE9DB
:1036A0000C01FFF7A7FBB0F82471384600F032FC9C
:1036B000CDE90001DDE91A733A4600F03FFC494AC2
:1036C0004A4BCDE9020100F039FCCDE90601DDE904
:1036D000160181F00041CDE90401DDE9062300F087
:1036E000D3F90022424BCDE9080100F027FCCDE9D7
:1036F0000A01DDE90C2300F021FC05463D4A3E4B62
:1037000000F06AFACDE90E01DDE9102300F064FA59
:10371000CDE9120100F0B8FB1490FFF76BFBB0F895
:103720002271384600F0F6FB05462E4A2E4B00F07B
:1037300005FCCDE91001FFF75DFBB0F83A512846D2
:1037400000F0E8FBCDE90A01FFF754FBB0F8245183
:10375000284600F0DFFB0746DDE91A532A4600F051
:10376000EDFB204A214BCDE9020100F0E7FBCDE95A
:103770000401DDE916532A4600F086F900221C4BAD
:10378000CDE9060100F0DAFBCDE90801DDE90A2305
:1037900000F0D4FB174A184BCDE90C0100F01CFADD
:1037A000CDE90E01DDE9102300F016FACDE9120192
:1037B00000F06AFB1590FFF71DFB00F5C4750121B1
:1037C0002846149AFDF7EAF9FFF714FB00F5E875AF
:1037D00002212846159AFDF7E1F91DB0BDE8F08FEA
:1037E00000005940FCA9F1D24D62503F4D62403F6C
:1037F00000004E40182D4454FB21094010B50848E4
:10380000007800F0010048B9054800F0EEF828B152
:10381000044800F0E9F80248AFF30080014810BD09
:10382000180000201C00002070B5054659480068AB
:10383000C06840F0100057490968C860FFF7DAFA1D
:103840000446FF2221465348FEF7DCFF5248006839
:10385000C06840F0100050490968C86041F28830E3
:10386000FDF72CFF4D48FDF720FDFFF7C3FA00F5EB
:10387000C47401212046FDF74FF9FFF7BBFA00F5AC
:10388000E87402212046FDF747F90120FDF716FFF5
:10389000FFF7B0FA00F5C47401212046FDF7FAF8ED
:1038A000FFF7A8FA00F5E87402212046FDF7F2F8C8
:1038B0000120FDF703FFFFF79DFA00F5C4744FF4F4
:1038C0007A7201212046FDF713F8FFF793FA00F50D
:1038D000E8744FF47A7202212046FDF709F80120BE
:1038E000FDF7ECFEFFF786FA00F5C4744FF47A7228
:1038F00001212046FDF786F8FFF77CFA00F5E87411
:103900004FF47A7202212046FDF77CF80120FDF782
:10391000D5FEFFF76FFA00F5C47406220121204698
:10392000FDF72EF8FFF766FA00F5E874062202218B
:103930002046FDF725F80120FDF7C0FEFFF75AFAF3
:1039400000F5C474072201212046FDF719F8FFF79E
:1039500051FA00F5E874072202212046FDF710F81D
:103960000120FDF7ABFEFFF745FA00F5C4740F2206
:1039700001212046FDF704F8FFF73CFA00F5E87452
:103980000F2202212046FCF7FBFF0120FDF796FEE7
:1039900070BD0000480000208C00002020000020A6
:1039A0007CB5044600F029F80E490968401A32280F
:1039B00003D900F022F80B490860FFF71BFAD0F892
:1039C0008051FFF717FAD0F87801281A0090FFF716
:1039D00011FAD0F88451FFF70DFAD0F87C01281ABB
:1039E00001907CBD100000207047016809B10020E3
:1039F0007047012101600846704738B500BF4FF09D
:103A0000E0200069FEF70EF805464FF0E02040691F
:103A1000441C4FF0E0208069201A0090FFF77AFAEA
:103A200038B1FDF7FFFF05464FF0E0208069201A0E
:103A300000904FF47A7100984843B0FBF4F005EB26
:103A40004501C1EBC51100EBC10038BDFDF7FCFF1E
:103A5000FFF79CF9FEF7B8FFFEF784FFFEF762FF61
:103A6000FEF7FAFFFFF714F8FFF7C8FE0446FFF76A
:103A7000DBFE07E0FFF7C2FE0446FFF7C3FC0A20A7
:103A8000FDF71CFEF6E7000010B591EA030F48BFF2
:103A900083F0004300F15883841A71EB030C05D2C4
:103AA000121943EB0C03001B61EB0C01DFF824E15E
:103AB0004FEA1154A4EB135C1EEA430F18BF9EEAB1
:103AC000445F73D023EA0E03DCF1200E21EA045197
:103AD00043F4801332D322FA0CFE10EB0E0023FACB
:103AE0000CFE41EB0E01CCF1200E03FA0EFE10EBA2
:103AF0000E0051F10001B1F5801FCCF1200E32D241
:103B000001EB045112FA0EF2BDE8104058BF7047A5
:103B1000401C38BF5FEA420218BF7047002814BF3C
:103B200020F0010041F100014FEA410313F5001FAD
:103B300038BF7047A1F1C04100F0F8BA012A43EB49
:103B40000302ACF1200CDCF11F0E32BF4FF0000E6F
:103B500023FA0CF310EB030041EB0451B4EB115FBB
:103B6000D0D0A1EB045101F5801149085FEA300083
:103B700001EB04510ED350F1000038BF12FA0EFED3
:103B800008D1BDE81040C9E7401C38BF5FEA4202D7
:103B9000CAD1C3E7BDE810404FEA410313F5001F47
:103BA00038BF7047A1F1C04100F0C0BA9EEA445F3F
:103BB00008D011EA5E0FBDE8104004BF01F00041DB
:103BC00000207047BDE8104070B500F061FA00BFFA
:103BD00064FBBE3E0000E0FF2DE9C04130B4DFF8D9
:103BE000A0C23CEA111418BF3CEA131400F0EC80A8
:103BF00081EA03051CEA111444EAD57418BF1CEAD3
:103C0000131500F0C780A4EB05044FF0004545EA0A
:103C1000C12145EAC32341EA505143EA525304F11A
:103C20007F74994204F500344FEAC0204FEAC22263
:103C300008BF904200F09C804FEA13650FF24016D7
:103C4000765D4FEA134506FB05F7C7F1807706FB63
:103C500007F74FEAD737A7FB03687642C8F58038E5
:103C6000A7FB06CE38BFA8F1010807FB08E64FF016
:103C7000000EA6FB028CE6FB03CEDCF1000CCEF1BD
:103C8000004E38BFAEF1010EA6FB0C584FF00007F6
:103C90004FF00005E6FB0E87A1FB08C6A0FB07CE90
:103CA00016EB0E0645F10005E1FB076515F1E04E48
:103CB0007EBFA4F580345FEA46066D4116F18007A9
:103CC00045F100054FEA17274FEA066647EA056700
:103CD000A6F1DE46B6F1805F4FEA15251FD93846BA
:103CE00024F0010C05EBC471BCF1FE6F01EB0C116B
:103CF00002D8F0BCBDE8008124425CBF01F5801E03
:103D00009EEAC47F02D4F0BCBDE80081244238D4CE
:103D1000F0BCA1F1C041BDE8004100F007BA4FEA94
:103D2000D22242EA43524FEAD323A7FB02864FEA4C
:103D3000D02040EA415007FB03661EEA0E0F4FEA0F
:103D4000D12105FB026658BFA6EB0056B6EB005624
:103D50004FEA520E4EEAC37E18EB0E0E56EB530E90
:103D6000BDD518EB02085E417F1C55F10005B6E792
:103D70004FF480154FF000074FF000064FF0000899
:103D8000ADE7F0BC4FF0000001F1C04101F000418F
:103D9000BDE8008111EA0C1F0CEA131500D00CE0FD
:103DA00013EA0C1F00F025804FF00000F0BC81EA00
:103DB000030101F00041BDE80081F0BCBDE8004115
:103DC00081EA030100F0B2B9F0BCBDE8004170B572
:103DD00000F05EF9097EFC3E00F007B881EA0301BD
:103DE0004FF0000001F00041704781EA030100F04C
:103DF0009DB9F0BCBDE800414FF00000214970477B
:103E0000FFFDFBF9F7F5F4F2F0EEEDEBE9E8E6E49F
:103E1000E3E1E0DEDDDBDAD8D7D5D4D3D1D0CFCD26
:103E2000CCCBCAC8C7C6C5C4C2C1C0BFBEBDBCBB5F
:103E3000BAB9B8B7B6B5B4B3B2B1B0AFAEADACAB5A
:103E4000AAA9A8A8A7A6A5A4A3A3A2A1A09F9F9E34
:103E50009D9C9C9B9A9999989797969595949393E6
:103E6000929191908F8F8E8E8D8C8C8B8B8A89897D
:103E70008888878786858584848383828281818000
:103E80000000FF070000F87F4FEA41034FEA535359
:103E9000A3F58063D3F11E03C8BFD3F1210C0CDD61
:103EA0004FF0004242EAC12242EA505232FA03FC89
:103EB0008CEAE17CACEBE1707047102BC4BF0020B2
:103EC000704703F5787CBCF1FF3F04D06FF00042EF
:103ED00082EA2100704770B500F0DAF84992248038
:103EE00000207047F2E710F0004248BF4042B0FAAD
:103EF00080F310FA03F10AD0C3F11D0303F58063C8
:103F00004FEA415002EB035202EBD12170474FF0D0
:103F100000007047B0FA80F310FA03F10AD0C3F141
:103F20001D0303F580634FEA41504FEA035202EB51
:103F3000D12170474FF0000070470000DFF848C102
:103F400070B51CEA111E1EBF1CEA13159EEA0C0F69
:103F500095EA0C0F00F06F8081EA030423EA4C130A
:103F60004EEAD47E21EA4C1141F4801143F48013CF
:103F7000AE44A1FB024CA0FB0365AEF17F7E361977
:103F800055EB0C05A1FB034C4CF10003A0FB021CFC
:103F900016EB0C06654153F10003094218BF46F0C9
:103FA000010613F4007F0BD14FEA03314FEA0530CD
:103FB000340341EA155140EA16506FF003020AE05B
:103FC0004FEAC3214FEAC520F40241EA555140EAC5
:103FD00056506FF0020202EB2E4201EB025585EAC9
:103FE000CE710AD05FEA440C18BF24F0004450F1AF
:103FF000000041F1000120EAD47040F2FE7C6245ED
:1040000000D270BDA84214BF4FF080444FF040442E
:10401000002E08BF0024BEF1806FA8BFA1F1C041EF
:10402000BDE8704080F282804FF0000001F1C04195
:1040300001F0004170479EEA0C0F0CEA131518BFFF
:1040400095EA0C0F06D04FF0000081EA030E0EF047
:10405000004170BD00F01CF88900013E00F007B877
:1040600000F009B84FEA430C5FEA5C5C08D081EAD3
:10407000030100F05BB84FEA410C5FEA5C5CF6D1EB
:104080004FF00000014970470000FF070000F87F73
:104090000EF1020E2EF0030E5EF8046B364205D4CC
:1040A000012A43EB030515F5001F12D8012841EB47
:1040B000010C1CF5001F0CD80ED14FEAD17C15F570
:1040C000001F0CEB4C0C0CF1020C08BF4CEBD37C2A
:1040D00004E04FF0080C01E04FEAD37C0CEB4C05F8
:1040E00026FA05F606F00706B6F1040C06D20EEB2A
:1040F000860CBDE870404CF0010C6047DFE80CF026
:10410000090B02024FF000414FF00000A1F5002121
:1041100070BD19461046012851EB010418BFD4F5B3
:10412000001484BF002001F0004170BD0808A0F514
:1041300000114FEA3101704710B591EA030F48BFF3
:1041400083F000433FF5A8AC841A71EB030C07D24F
:1041500012198CF0004C43EB0C03001B61EB0C01BB
:10416000DFF8A4E14FEA1154A4EB135C1EEA430FFD
:1041700018BF9EEA445F00F0B08023EA6E0352420B
:1041800021EA0451C3EB6E0338BF5B1EDCF1200E45
:1041900025D322FA0CFE10EB0E0043FA0CFE41EB85
:1041A0000E01CCF1200E03FA0EFE10EB0E0051F1C1
:1041B0000001CCF1200E29D412FA0EF201EB0451C9
:1041C000BDE8104058BF7047401C1CBFB2F1004F03
:1041D000704700280CBF491C20F00100704712EB0B
:1041E000020E43EB030218BF4FF0010E4EEA4202EB
:1041F000ACF1200CDCF11E0E54D943FA0CFE10EB8E
:104200000E0051F1FF31CCF11E0ED5D50EF1010E8D
:1042100012FA0EFE404141EB010101EB445C5FEA02
:104220005C5C10D910EBDE7001EB045138BFBEF1BD
:10423000004FBDE8104018BF704700280CBF491C54
:1042400020F00100704730D24FEAD42C11F5001154
:1042500024F400641BD0B1FA81F20B3AA41AA41E14
:10426000D2F12003914030FA03F31943904001EB5F
:10427000CC71002C01EB0451BDE81040A8BF704781
:1042800001F1C0414FF0000001F000417047B0FA69
:1042900080F310FA03F100D110BDE41A173C480571
:1042A000C90AE4E701EB045110BD491001EB0451C8
:1042B000BDE810404FEA300002E04FF000017047C7
:1042C0004A0008BF0042F8D0B2F5001F28BF70476F
:1042D00001F000414FF0000070479EEA445F07D0B4
:1042E00011EA5E0FBDE8104004BF002100207047B6
:1042F000BDE8104070B5FFF7CBFE00BF40DFF63ED3
:1043000083F00041104670470000E0FF000000000D
:104310000000000001020304060708090000000075
:1043200001020304022001064060000660600002F2
:104330008360000784600007FF6000045C4300089E
:104340000000002020000000280100087C43000835
:1043500020000020680A000044010008000000005E
:1043600010000000010000000024F4000000000024
:0C43700000000000000000000000000041
:04000005080000ED02
:00000001FF
